{"abi":[{"type":"function","name":"getPrice","inputs":[],"outputs":[{"name":"","type":"uint256","internalType":"uint256"}],"stateMutability":"view"}],"bytecode":{"object":"0x6080604052736ce185860a4963106506c203335a2910413708e95f5f6101000a81548173ffffffffffffffffffffffffffffffffffffffff021916908373ffffffffffffffffffffffffffffffffffffffff1602179055507350834f3163758fcc1df9973b6e91f0f0f0434ad360015f6101000a81548173ffffffffffffffffffffffffffffffffffffffff021916908373ffffffffffffffffffffffffffffffffffffffff16021790555034801560b5575f5ffd5b506103df806100c35f395ff3fe608060405234801561000f575f5ffd5b5060043610610029575f3560e01c806398d5fdca1461002d575b5f5ffd5b61003561004b565b60405161004291906101ae565b60405180910390f35b5f5f60015f9054906101000a900473ffffffffffffffffffffffffffffffffffffffff1673ffffffffffffffffffffffffffffffffffffffff1663feaf968c6040518163ffffffff1660e01b815260040160a060405180830381865afa1580156100b7573d5f5f3e3d5ffd5b505050506040513d601f19601f820116820180604052508101906100db9190610267565b5050509150505f5f5f9054906101000a900473ffffffffffffffffffffffffffffffffffffffff1673ffffffffffffffffffffffffffffffffffffffff1663feaf968c6040518163ffffffff1660e01b815260040160a060405180830381865afa15801561014b573d5f5f3e3d5ffd5b505050506040513d601f19601f8201168201806040525081019061016f9190610267565b50505091505081620f424082610185919061030b565b61018f9190610379565b9250505090565b5f819050919050565b6101a881610196565b82525050565b5f6020820190506101c15f83018461019f565b92915050565b5f5ffd5b5f69ffffffffffffffffffff82169050919050565b6101e9816101cb565b81146101f3575f5ffd5b50565b5f81519050610204816101e0565b92915050565b5f819050919050565b61021c8161020a565b8114610226575f5ffd5b50565b5f8151905061023781610213565b92915050565b61024681610196565b8114610250575f5ffd5b50565b5f815190506102618161023d565b92915050565b5f5f5f5f5f60a086880312156102805761027f6101c7565b5b5f61028d888289016101f6565b955050602061029e88828901610229565b94505060406102af88828901610253565b93505060606102c088828901610253565b92505060806102d1888289016101f6565b9150509295509295909350565b7f4e487b71000000000000000000000000000000000000000000000000000000005f52601160045260245ffd5b5f61031582610196565b915061032083610196565b925082820261032e81610196565b91508282048414831517610345576103446102de565b5b5092915050565b7f4e487b71000000000000000000000000000000000000000000000000000000005f52601260045260245ffd5b5f61038382610196565b915061038e83610196565b92508261039e5761039d61034c565b5b82820490509291505056fea264697066735822122033e38b90ac09df2e2f21f8a722a6717409345a76e3f6558054bffc7de042747e64736f6c634300081d0033","linkReferences":{}},"methodIdentifiers":{"getPrice()":"98d5fdca"},"id":20}