{"abi":[{"type":"constructor","inputs":[],"stateMutability":"nonpayable"},{"type":"function","name":"allowance","inputs":[{"name":"owner","type":"address","internalType":"address"},{"name":"spender","type":"address","internalType":"address"}],"outputs":[{"name":"","type":"uint256","internalType":"uint256"}],"stateMutability":"view"},{"type":"function","name":"approve","inputs":[{"name":"spender","type":"address","internalType":"address"},{"name":"value","type":"uint256","internalType":"uint256"}],"outputs":[{"name":"","type":"bool","internalType":"bool"}],"stateMutability":"nonpayable"},{"type":"function","name":"balanceOf","inputs":[{"name":"account","type":"address","internalType":"address"}],"outputs":[{"name":"","type":"uint256","internalType":"uint256"}],"stateMutability":"view"},{"type":"function","name":"decimals","inputs":[],"outputs":[{"name":"","type":"uint8","internalType":"uint8"}],"stateMutability":"pure"},{"type":"function","name":"getAdmin","inputs":[],"outputs":[{"name":"","type":"address","internalType":"address"}],"stateMutability":"view"},{"type":"function","name":"initialize","inputs":[],"outputs":[],"stateMutability":"nonpayable"},{"type":"function","name":"mint","inputs":[{"name":"to","type":"address","internalType":"address"},{"name":"amount","type":"uint256","internalType":"uint256"}],"outputs":[],"stateMutability":"nonpayable"},{"type":"function","name":"name","inputs":[],"outputs":[{"name":"","type":"string","internalType":"string"}],"stateMutability":"view"},{"type":"function","name":"symbol","inputs":[],"outputs":[{"name":"","type":"string","internalType":"string"}],"stateMutability":"view"},{"type":"function","name":"totalSupply","inputs":[],"outputs":[{"name":"","type":"uint256","internalType":"uint256"}],"stateMutability":"view"},{"type":"function","name":"transfer","inputs":[{"name":"to","type":"address","internalType":"address"},{"name":"value","type":"uint256","internalType":"uint256"}],"outputs":[{"name":"","type":"bool","internalType":"bool"}],"stateMutability":"nonpayable"},{"type":"function","name":"transferFrom","inputs":[{"name":"from","type":"address","internalType":"address"},{"name":"to","type":"address","internalType":"address"},{"name":"value","type":"uint256","internalType":"uint256"}],"outputs":[{"name":"","type":"bool","internalType":"bool"}],"stateMutability":"nonpayable"},{"type":"function","name":"version","inputs":[],"outputs":[{"name":"","type":"uint256","internalType":"uint256"}],"stateMutability":"pure"},{"type":"event","name":"Approval","inputs":[{"name":"owner","type":"address","indexed":true,"internalType":"address"},{"name":"spender","type":"address","indexed":true,"internalType":"address"},{"name":"value","type":"uint256","indexed":false,"internalType":"uint256"}],"anonymous":false},{"type":"event","name":"Initialized","inputs":[{"name":"version","type":"uint64","indexed":false,"internalType":"uint64"}],"anonymous":false},{"type":"event","name":"Transfer","inputs":[{"name":"from","type":"address","indexed":true,"internalType":"address"},{"name":"to","type":"address","indexed":true,"internalType":"address"},{"name":"value","type":"uint256","indexed":false,"internalType":"uint256"}],"anonymous":false},{"type":"error","name":"ERC20InsufficientAllowance","inputs":[{"name":"spender","type":"address","internalType":"address"},{"name":"allowance","type":"uint256","internalType":"uint256"},{"name":"needed","type":"uint256","internalType":"uint256"}]},{"type":"error","name":"ERC20InsufficientBalance","inputs":[{"name":"sender","type":"address","internalType":"address"},{"name":"balance","type":"uint256","internalType":"uint256"},{"name":"needed","type":"uint256","internalType":"uint256"}]},{"type":"error","name":"ERC20InvalidApprover","inputs":[{"name":"approver","type":"address","internalType":"address"}]},{"type":"error","name":"ERC20InvalidReceiver","inputs":[{"name":"receiver","type":"address","internalType":"address"}]},{"type":"error","name":"ERC20InvalidSender","inputs":[{"name":"sender","type":"address","internalType":"address"}]},{"type":"error","name":"ERC20InvalidSpender","inputs":[{"name":"spender","type":"address","internalType":"address"}]},{"type":"error","name":"InvalidInitialization","inputs":[]},{"type":"error","name":"NotInitializing","inputs":[]}],"bytecode":{"object":"0x608060405234801561000f575f5ffd5b5061001e61002360201b60201c565b61019e565b5f61003261012160201b60201c565b9050805f0160089054906101000a900460ff161561007c576040517ff92ee8a900000000000000000000000000000000000000000000000000000000815260040160405180910390fd5b67ffffffffffffffff8016815f015f9054906101000a900467ffffffffffffffff1667ffffffffffffffff161461011e5767ffffffffffffffff815f015f6101000a81548167ffffffffffffffff021916908367ffffffffffffffff1602179055507fc7f505b2f371ae2175ee4913f4499e1f2633a7b5936321eed1cdaeb6115181d267ffffffffffffffff6040516101159190610185565b60405180910390a15b50565b5f5f61013161013a60201b60201c565b90508091505090565b5f7ff0c57e16840df040f15088dc2f81fe391c3923bec73e23a9662efc9c229c6a005f1b905090565b5f67ffffffffffffffff82169050919050565b61017f81610163565b82525050565b5f6020820190506101985f830184610176565b92915050565b6115e8806101ab5f395ff3fe608060405234801561000f575f5ffd5b50600436106100cd575f3560e01c806354fd4d501161008a5780638129fc1c116100645780638129fc1c1461021357806395d89b411461021d578063a9059cbb1461023b578063dd62ed3e1461026b576100cd565b806354fd4d50146101a75780636e9960c3146101c557806370a08231146101e3576100cd565b806306fdde03146100d1578063095ea7b3146100ef57806318160ddd1461011f57806323b872dd1461013d578063313ce5671461016d57806340c10f191461018b575b5f5ffd5b6100d961029b565b6040516100e69190610f60565b60405180910390f35b61010960048036038101906101049190611011565b610339565b6040516101169190611069565b60405180910390f35b61012761035b565b6040516101349190611091565b60405180910390f35b610157600480360381019061015291906110aa565b610372565b6040516101649190611069565b60405180910390f35b6101756103a0565b6040516101829190611115565b60405180910390f35b6101a560048036038101906101a09190611011565b6103a8565b005b6101af6103b6565b6040516101bc9190611091565b60405180910390f35b6101cd6103be565b6040516101da919061113d565b60405180910390f35b6101fd60048036038101906101f89190611156565b6103cc565b60405161020a9190611091565b60405180910390f35b61021b61041f565b005b61022561060a565b6040516102329190610f60565b60405180910390f35b61025560048036038101906102509190611011565b6106a8565b6040516102629190611069565b60405180910390f35b61028560048036038101906102809190611181565b6106ca565b6040516102929190611091565b60405180910390f35b60605f6102a661075a565b90508060030180546102b7906111ec565b80601f01602080910402602001604051908101604052809291908181526020018280546102e3906111ec565b801561032e5780601f106103055761010080835404028352916020019161032e565b820191905f5260205f20905b81548152906001019060200180831161031157829003601f168201915b505050505091505090565b5f5f610343610781565b9050610350818585610788565b600191505092915050565b5f5f61036561075a565b9050806002015491505090565b5f5f61037c610781565b905061038985828561079a565b61039485858561082d565b60019150509392505050565b5f6006905090565b6103b2828261091d565b5050565b5f6001905090565b5f6103c761099c565b905090565b5f5f6103d661075a565b9050805f015f8473ffffffffffffffffffffffffffffffffffffffff1673ffffffffffffffffffffffffffffffffffffffff1681526020019081526020015f2054915050919050565b5f6104286109ef565b90505f815f0160089054906101000a900460ff161590505f825f015f9054906101000a900467ffffffffffffffff1690505f5f8267ffffffffffffffff161480156104705750825b90505f60018367ffffffffffffffff161480156104a357505f3073ffffffffffffffffffffffffffffffffffffffff163b145b9050811580156104b1575080155b156104e8576040517ff92ee8a900000000000000000000000000000000000000000000000000000000815260040160405180910390fd5b6001855f015f6101000a81548167ffffffffffffffff021916908367ffffffffffffffff1602179055508315610535576001855f0160086101000a81548160ff0219169083151502179055505b6105a96040518060400160405280600881526020017f4d6f636b555344430000000000000000000000000000000000000000000000008152506040518060400160405280600481526020017f5553444300000000000000000000000000000000000000000000000000000000815250610a02565b8315610603575f855f0160086101000a81548160ff0219169083151502179055507fc7f505b2f371ae2175ee4913f4499e1f2633a7b5936321eed1cdaeb6115181d260016040516105fa9190611271565b60405180910390a15b5050505050565b60605f61061561075a565b9050806004018054610626906111ec565b80601f0160208091040260200160405190810160405280929190818152602001828054610652906111ec565b801561069d5780601f106106745761010080835404028352916020019161069d565b820191905f5260205f20905b81548152906001019060200180831161068057829003601f168201915b505050505091505090565b5f5f6106b2610781565b90506106bf81858561082d565b600191505092915050565b5f5f6106d461075a565b9050806001015f8573ffffffffffffffffffffffffffffffffffffffff1673ffffffffffffffffffffffffffffffffffffffff1681526020019081526020015f205f8473ffffffffffffffffffffffffffffffffffffffff1673ffffffffffffffffffffffffffffffffffffffff1681526020019081526020015f205491505092915050565b5f7f52c63247e1f47db19d5ce0460030c497f067ca4cebf71ba98eeadabe20bace00905090565b5f33905090565b6107958383836001610a18565b505050565b5f6107a584846106ca565b90507fffffffffffffffffffffffffffffffffffffffffffffffffffffffffffffffff8110156108275781811015610818578281836040517ffb8f41b200000000000000000000000000000000000000000000000000000000815260040161080f9392919061128a565b60405180910390fd5b61082684848484035f610a18565b5b50505050565b5f73ffffffffffffffffffffffffffffffffffffffff168373ffffffffffffffffffffffffffffffffffffffff160361089d575f6040517f96c6fd1e000000000000000000000000000000000000000000000000000000008152600401610894919061113d565b60405180910390fd5b5f73ffffffffffffffffffffffffffffffffffffffff168273ffffffffffffffffffffffffffffffffffffffff160361090d575f6040517fec442f05000000000000000000000000000000000000000000000000000000008152600401610904919061113d565b60405180910390fd5b610918838383610bf5565b505050565b5f73ffffffffffffffffffffffffffffffffffffffff168273ffffffffffffffffffffffffffffffffffffffff160361098d575f6040517fec442f05000000000000000000000000000000000000000000000000000000008152600401610984919061113d565b60405180910390fd5b6109985f8383610bf5565b5050565b5f6109c87fb53127684a568b3173ae13b9f8a6016e243e63b6e8ee1178d6a717850b5d61035f1b610e24565b5f015f9054906101000a900473ffffffffffffffffffffffffffffffffffffffff16905090565b5f5f6109f9610e2d565b90508091505090565b610a0a610e56565b610a148282610e96565b5050565b5f610a2161075a565b90505f73ffffffffffffffffffffffffffffffffffffffff168573ffffffffffffffffffffffffffffffffffffffff1603610a93575f6040517fe602df05000000000000000000000000000000000000000000000000000000008152600401610a8a919061113d565b60405180910390fd5b5f73ffffffffffffffffffffffffffffffffffffffff168473ffffffffffffffffffffffffffffffffffffffff1603610b03575f6040517f94280d62000000000000000000000000000000000000000000000000000000008152600401610afa919061113d565b60405180910390fd5b82816001015f8773ffffffffffffffffffffffffffffffffffffffff1673ffffffffffffffffffffffffffffffffffffffff1681526020019081526020015f205f8673ffffffffffffffffffffffffffffffffffffffff1673ffffffffffffffffffffffffffffffffffffffff1681526020019081526020015f20819055508115610bee578373ffffffffffffffffffffffffffffffffffffffff168573ffffffffffffffffffffffffffffffffffffffff167f8c5be1e5ebec7d5bd14f71427d1e84f3dd0314c0f7b2291e5b200ac8c7c3b92585604051610be59190611091565b60405180910390a35b5050505050565b5f610bfe61075a565b90505f73ffffffffffffffffffffffffffffffffffffffff168473ffffffffffffffffffffffffffffffffffffffff1603610c525781816002015f828254610c4691906112ec565b92505081905550610d24565b5f815f015f8673ffffffffffffffffffffffffffffffffffffffff1673ffffffffffffffffffffffffffffffffffffffff1681526020019081526020015f2054905082811015610cdd578481846040517fe450d38c000000000000000000000000000000000000000000000000000000008152600401610cd49392919061128a565b60405180910390fd5b828103825f015f8773ffffffffffffffffffffffffffffffffffffffff1673ffffffffffffffffffffffffffffffffffffffff1681526020019081526020015f2081905550505b5f73ffffffffffffffffffffffffffffffffffffffff168373ffffffffffffffffffffffffffffffffffffffff1603610d6d5781816002015f8282540392505081905550610db9565b81815f015f8573ffffffffffffffffffffffffffffffffffffffff1673ffffffffffffffffffffffffffffffffffffffff1681526020019081526020015f205f82825401925050819055505b8273ffffffffffffffffffffffffffffffffffffffff168473ffffffffffffffffffffffffffffffffffffffff167fddf252ad1be2c89b69c2b068fc378daa952ba7f163c4a11628f55a4df523b3ef84604051610e169190611091565b60405180910390a350505050565b5f819050919050565b5f7ff0c57e16840df040f15088dc2f81fe391c3923bec73e23a9662efc9c229c6a005f1b905090565b610e5e610ed2565b610e94576040517fd7e6bcf800000000000000000000000000000000000000000000000000000000815260040160405180910390fd5b565b610e9e610e56565b5f610ea761075a565b905082816003019081610eba91906114e3565b5081816004019081610ecc91906114e3565b50505050565b5f610edb6109ef565b5f0160089054906101000a900460ff16905090565b5f81519050919050565b5f82825260208201905092915050565b8281835e5f83830152505050565b5f601f19601f8301169050919050565b5f610f3282610ef0565b610f3c8185610efa565b9350610f4c818560208601610f0a565b610f5581610f18565b840191505092915050565b5f6020820190508181035f830152610f788184610f28565b905092915050565b5f5ffd5b5f73ffffffffffffffffffffffffffffffffffffffff82169050919050565b5f610fad82610f84565b9050919050565b610fbd81610fa3565b8114610fc7575f5ffd5b50565b5f81359050610fd881610fb4565b92915050565b5f819050919050565b610ff081610fde565b8114610ffa575f5ffd5b50565b5f8135905061100b81610fe7565b92915050565b5f5f6040838503121561102757611026610f80565b5b5f61103485828601610fca565b925050602061104585828601610ffd565b9150509250929050565b5f8115159050919050565b6110638161104f565b82525050565b5f60208201905061107c5f83018461105a565b92915050565b61108b81610fde565b82525050565b5f6020820190506110a45f830184611082565b92915050565b5f5f5f606084860312156110c1576110c0610f80565b5b5f6110ce86828701610fca565b93505060206110df86828701610fca565b92505060406110f086828701610ffd565b9150509250925092565b5f60ff82169050919050565b61110f816110fa565b82525050565b5f6020820190506111285f830184611106565b92915050565b61113781610fa3565b82525050565b5f6020820190506111505f83018461112e565b92915050565b5f6020828403121561116b5761116a610f80565b5b5f61117884828501610fca565b91505092915050565b5f5f6040838503121561119757611196610f80565b5b5f6111a485828601610fca565b92505060206111b585828601610fca565b9150509250929050565b7f4e487b71000000000000000000000000000000000000000000000000000000005f52602260045260245ffd5b5f600282049050600182168061120357607f821691505b602082108103611216576112156111bf565b5b50919050565b5f819050919050565b5f67ffffffffffffffff82169050919050565b5f819050919050565b5f61125b6112566112518461121c565b611238565b611225565b9050919050565b61126b81611241565b82525050565b5f6020820190506112845f830184611262565b92915050565b5f60608201905061129d5f83018661112e565b6112aa6020830185611082565b6112b76040830184611082565b949350505050565b7f4e487b71000000000000000000000000000000000000000000000000000000005f52601160045260245ffd5b5f6112f682610fde565b915061130183610fde565b9250828201905080821115611319576113186112bf565b5b92915050565b7f4e487b71000000000000000000000000000000000000000000000000000000005f52604160045260245ffd5b5f819050815f5260205f209050919050565b5f6020601f8301049050919050565b5f82821b905092915050565b5f600883026113a87fffffffffffffffffffffffffffffffffffffffffffffffffffffffffffffffff8261136d565b6113b2868361136d565b95508019841693508086168417925050509392505050565b5f6113e46113df6113da84610fde565b611238565b610fde565b9050919050565b5f819050919050565b6113fd836113ca565b611411611409826113eb565b848454611379565b825550505050565b5f5f905090565b611428611419565b6114338184846113f4565b505050565b5b818110156114565761144b5f82611420565b600181019050611439565b5050565b601f82111561149b5761146c8161134c565b6114758461135e565b81016020851015611484578190505b6114986114908561135e565b830182611438565b50505b505050565b5f82821c905092915050565b5f6114bb5f19846008026114a0565b1980831691505092915050565b5f6114d383836114ac565b9150826002028217905092915050565b6114ec82610ef0565b67ffffffffffffffff8111156115055761150461131f565b5b61150f82546111ec565b61151a82828561145a565b5f60209050601f83116001811461154b575f8415611539578287015190505b61154385826114c8565b8655506115aa565b601f1984166115598661134c565b5f5b828110156115805784890151825560018201915060208501945060208101905061155b565b8683101561159d5784890151611599601f8916826114ac565b8355505b6001600288020188555050505b50505050505056fea2646970667358221220fbdc665d8a609444567248948249d0b15c7a8cdbacf3b2cb2e2fa6c1864a9a1764736f6c634300081d0033","linkReferences":{}},"methodIdentifiers":{"allowance(address,address)":"dd62ed3e","approve(address,uint256)":"095ea7b3","balanceOf(address)":"70a08231","decimals()":"313ce567","getAdmin()":"6e9960c3","initialize()":"8129fc1c","mint(address,uint256)":"40c10f19","name()":"06fdde03","symbol()":"95d89b41","totalSupply()":"18160ddd","transfer(address,uint256)":"a9059cbb","transferFrom(address,address,uint256)":"23b872dd","version()":"54fd4d50"},"id":37}