{"abi":[{"type":"constructor","inputs":[],"stateMutability":"nonpayable"},{"type":"function","name":"increment","inputs":[],"outputs":[],"stateMutability":"nonpayable"},{"type":"function","name":"number","inputs":[],"outputs":[{"name":"","type":"uint256","internalType":"uint256"}],"stateMutability":"view"},{"type":"function","name":"owner","inputs":[],"outputs":[{"name":"","type":"address","internalType":"address"}],"stateMutability":"view"},{"type":"function","name":"price","inputs":[],"outputs":[{"name":"","type":"uint256","internalType":"uint256"}],"stateMutability":"view"},{"type":"function","name":"setNumber","inputs":[{"name":"newNumber","type":"uint256","internalType":"uint256"}],"outputs":[],"stateMutability":"nonpayable"},{"type":"function","name":"setPrice","inputs":[{"name":"newPrice","type":"uint256","internalType":"uint256"}],"outputs":[],"stateMutability":"nonpayable"}],"bytecode":{"object":"0x6080604052348015600e575f5ffd5b503360025f6101000a81548173ffffffffffffffffffffffffffffffffffffffff021916908373ffffffffffffffffffffffffffffffffffffffff1602179055506103ee8061005c5f395ff3fe608060405234801561000f575f5ffd5b5060043610610060575f3560e01c80633fb5c1cb146100645780638381f58a146100805780638da5cb5b1461009e57806391b7f5ed146100bc578063a035b1fe146100d8578063d09de08a146100f6575b5f5ffd5b61007e60048036038101906100799190610221565b610100565b005b610088610109565b604051610095919061025b565b60405180910390f35b6100a661010e565b6040516100b391906102b3565b60405180910390f35b6100d660048036038101906100d19190610221565b610133565b005b6100e06101cc565b6040516100ed919061025b565b60405180910390f35b6100fe6101d2565b005b805f8190555050565b5f5481565b60025f9054906101000a900473ffffffffffffffffffffffffffffffffffffffff1681565b60025f9054906101000a900473ffffffffffffffffffffffffffffffffffffffff1673ffffffffffffffffffffffffffffffffffffffff163373ffffffffffffffffffffffffffffffffffffffff16146101c2576040517f08c379a00000000000000000000000000000000000000000000000000000000081526004016101b990610326565b60405180910390fd5b8060018190555050565b60015481565b5f5f8154809291906101e390610371565b9190505550565b5f5ffd5b5f819050919050565b610200816101ee565b811461020a575f5ffd5b50565b5f8135905061021b816101f7565b92915050565b5f60208284031215610236576102356101ea565b5b5f6102438482850161020d565b91505092915050565b610255816101ee565b82525050565b5f60208201905061026e5f83018461024c565b92915050565b5f73ffffffffffffffffffffffffffffffffffffffff82169050919050565b5f61029d82610274565b9050919050565b6102ad81610293565b82525050565b5f6020820190506102c65f8301846102a4565b92915050565b5f82825260208201905092915050565b7f4f6e6c79206f776e65722063616e2073657420707269636500000000000000005f82015250565b5f6103106018836102cc565b915061031b826102dc565b602082019050919050565b5f6020820190508181035f83015261033d81610304565b9050919050565b7f4e487b71000000000000000000000000000000000000000000000000000000005f52601160045260245ffd5b5f61037b826101ee565b91507fffffffffffffffffffffffffffffffffffffffffffffffffffffffffffffffff82036103ad576103ac610344565b5b60018201905091905056fea2646970667358221220ef7ecc7e4c5d4305d3ae22554d67ce5d0c92a959bdb0c192e55a41f2b2897e6764736f6c634300081d0033","linkReferences":{}},"methodIdentifiers":{"increment()":"d09de08a","number()":"8381f58a","owner()":"8da5cb5b","price()":"a035b1fe","setNumber(uint256)":"3fb5c1cb","setPrice(uint256)":"91b7f5ed"},"id":0}