{"abi":[{"type":"function","name":"supplyAndBorrow","inputs":[{"name":"supplyAmount","type":"uint256","internalType":"uint256"},{"name":"borrowAmount","type":"uint256","internalType":"uint256"}],"outputs":[],"stateMutability":"nonpayable"}],"bytecode":{"object":"0x60806040527382af49447d8a07e3bd95bd0d56f35241523fbab15f5f6101000a81548173ffffffffffffffffffffffffffffffffffffffff021916908373ffffffffffffffffffffffffffffffffffffffff16021790555073af88d065e77c8cc2239327c5edb3a432268e583160015f6101000a81548173ffffffffffffffffffffffffffffffffffffffff021916908373ffffffffffffffffffffffffffffffffffffffff16021790555073794a61358d6845594f94dc1db02a252b5b4814ad60025f6101000a81548173ffffffffffffffffffffffffffffffffffffffff021916908373ffffffffffffffffffffffffffffffffffffffff16021790555034801561010a575f5ffd5b50610674806101185f395ff3fe608060405234801561000f575f5ffd5b5060043610610029575f3560e01c80638fc9f8801461002d575b5f5ffd5b610047600480360381019061004291906103da565b610049565b005b5f5f9054906101000a900473ffffffffffffffffffffffffffffffffffffffff1673ffffffffffffffffffffffffffffffffffffffff166323b872dd3330856040518463ffffffff1660e01b81526004016100a693929190610466565b6020604051808303815f875af11580156100c2573d5f5f3e3d5ffd5b505050506040513d601f19601f820116820180604052508101906100e691906104d0565b505f5f9054906101000a900473ffffffffffffffffffffffffffffffffffffffff1673ffffffffffffffffffffffffffffffffffffffff1663095ea7b360025f9054906101000a900473ffffffffffffffffffffffffffffffffffffffff16846040518363ffffffff1660e01b81526004016101639291906104fb565b6020604051808303815f875af115801561017f573d5f5f3e3d5ffd5b505050506040513d601f19601f820116820180604052508101906101a391906104d0565b5060025f9054906101000a900473ffffffffffffffffffffffffffffffffffffffff1673ffffffffffffffffffffffffffffffffffffffff1663617ba0375f5f9054906101000a900473ffffffffffffffffffffffffffffffffffffffff1684305f6040518563ffffffff1660e01b81526004016102249493929190610571565b5f604051808303815f87803b15801561023b575f5ffd5b505af115801561024d573d5f5f3e3d5ffd5b5050505060025f9054906101000a900473ffffffffffffffffffffffffffffffffffffffff1673ffffffffffffffffffffffffffffffffffffffff1663a415bcad60015f9054906101000a900473ffffffffffffffffffffffffffffffffffffffff168360025f306040518663ffffffff1660e01b81526004016102d59594939291906105ed565b5f604051808303815f87803b1580156102ec575f5ffd5b505af11580156102fe573d5f5f3e3d5ffd5b5050505060015f9054906101000a900473ffffffffffffffffffffffffffffffffffffffff1673ffffffffffffffffffffffffffffffffffffffff1663a9059cbb33836040518363ffffffff1660e01b815260040161035e9291906104fb565b6020604051808303815f875af115801561037a573d5f5f3e3d5ffd5b505050506040513d601f19601f8201168201806040525081019061039e91906104d0565b505050565b5f5ffd5b5f819050919050565b6103b9816103a7565b81146103c3575f5ffd5b50565b5f813590506103d4816103b0565b92915050565b5f5f604083850312156103f0576103ef6103a3565b5b5f6103fd858286016103c6565b925050602061040e858286016103c6565b9150509250929050565b5f73ffffffffffffffffffffffffffffffffffffffff82169050919050565b5f61044182610418565b9050919050565b61045181610437565b82525050565b610460816103a7565b82525050565b5f6060820190506104795f830186610448565b6104866020830185610448565b6104936040830184610457565b949350505050565b5f8115159050919050565b6104af8161049b565b81146104b9575f5ffd5b50565b5f815190506104ca816104a6565b92915050565b5f602082840312156104e5576104e46103a3565b5b5f6104f2848285016104bc565b91505092915050565b5f60408201905061050e5f830185610448565b61051b6020830184610457565b9392505050565b5f819050919050565b5f61ffff82169050919050565b5f819050919050565b5f61055b61055661055184610522565b610538565b61052b565b9050919050565b61056b81610541565b82525050565b5f6080820190506105845f830187610448565b6105916020830186610457565b61059e6040830185610448565b6105ab6060830184610562565b95945050505050565b5f819050919050565b5f6105d76105d26105cd846105b4565b610538565b6103a7565b9050919050565b6105e7816105bd565b82525050565b5f60a0820190506106005f830188610448565b61060d6020830187610457565b61061a60408301866105de565b6106276060830185610562565b6106346080830184610448565b969550505050505056fea2646970667358221220db280297313b76a1044eccfde485c764437dda50aa495e0fc56183eaa98ea97d64736f6c634300081d0033","linkReferences":{}},"methodIdentifiers":{"supplyAndBorrow(uint256,uint256)":"8fc9f880"},"id":23}