{"abi":[{"type":"function","name":"loopingSupply","inputs":[{"name":"supplyAmount","type":"uint256","internalType":"uint256"},{"name":"borrowAmount","type":"uint256","internalType":"uint256"}],"outputs":[],"stateMutability":"nonpayable"},{"type":"function","name":"receiveFlashLoan","inputs":[{"name":"tokens","type":"address[]","internalType":"contract IERC20[]"},{"name":"amounts","type":"uint256[]","internalType":"uint256[]"},{"name":"feeAmounts","type":"uint256[]","internalType":"uint256[]"},{"name":"data","type":"bytes","internalType":"bytes"}],"outputs":[],"stateMutability":"nonpayable"}],"bytecode":{"object":"0x608060405273e592427a0aece92de3edee1f18e0157c058615645f5f6101000a81548173ffffffffffffffffffffffffffffffffffffffff021916908373ffffffffffffffffffffffffffffffffffffffff16021790555073ba12222222228d8ba445958a75a0704d566bf2c860015f6101000a81548173ffffffffffffffffffffffffffffffffffffffff021916908373ffffffffffffffffffffffffffffffffffffffff16021790555073794a61358d6845594f94dc1db02a252b5b4814ad60025f6101000a81548173ffffffffffffffffffffffffffffffffffffffff021916908373ffffffffffffffffffffffffffffffffffffffff1602179055507382af49447d8a07e3bd95bd0d56f35241523fbab160035f6101000a81548173ffffffffffffffffffffffffffffffffffffffff021916908373ffffffffffffffffffffffffffffffffffffffff16021790555073af88d065e77c8cc2239327c5edb3a432268e583160045f6101000a81548173ffffffffffffffffffffffffffffffffffffffff021916908373ffffffffffffffffffffffffffffffffffffffff1602179055503480156101b2575f5ffd5b5061131c806101c05f395ff3fe608060405234801561000f575f5ffd5b5060043610610034575f3560e01c8063686ddb7314610038578063f04f270714610054575b5f5ffd5b610052600480360381019061004d9190610876565b610070565b005b61006e60048036038101906100699190610bdf565b6102ec565b005b60035f9054906101000a900473ffffffffffffffffffffffffffffffffffffffff1673ffffffffffffffffffffffffffffffffffffffff166323b872dd3330856040518463ffffffff1660e01b81526004016100ce93929190610cd1565b6020604051808303815f875af11580156100ea573d5f5f3e3d5ffd5b505050506040513d601f19601f8201168201806040525081019061010e9190610d3b565b505f600167ffffffffffffffff81111561012b5761012a6108c8565b5b6040519080825280602002602001820160405280156101595781602001602082028036833780820191505090505b50905060045f9054906101000a900473ffffffffffffffffffffffffffffffffffffffff16815f8151811061019157610190610d66565b5b602002602001019073ffffffffffffffffffffffffffffffffffffffff16908173ffffffffffffffffffffffffffffffffffffffff16815250505f600167ffffffffffffffff8111156101e7576101e66108c8565b5b6040519080825280602002602001820160405280156102155781602001602082028036833780820191505090505b50905082815f8151811061022c5761022b610d66565b5b60200260200101818152505060015f9054906101000a900473ffffffffffffffffffffffffffffffffffffffff1673ffffffffffffffffffffffffffffffffffffffff16635c38449e308484888860405160200161028b929190610d93565b6040516020818303038152906040526040518563ffffffff1660e01b81526004016102b99493929190610f88565b5f604051808303815f87803b1580156102d0575f5ffd5b505af11580156102e2573d5f5f3e3d5ffd5b5050505050505050565b5f5f828060200190518101906103029190610ff4565b9150915060045f9054906101000a900473ffffffffffffffffffffffffffffffffffffffff1673ffffffffffffffffffffffffffffffffffffffff1663095ea7b35f5f9054906101000a900473ffffffffffffffffffffffffffffffffffffffff16836040518363ffffffff1660e01b8152600401610382929190611032565b6020604051808303815f875af115801561039e573d5f5f3e3d5ffd5b505050506040513d601f19601f820116820180604052508101906103c29190610d3b565b505f60405180610100016040528060045f9054906101000a900473ffffffffffffffffffffffffffffffffffffffff1673ffffffffffffffffffffffffffffffffffffffff16815260200160035f9054906101000a900473ffffffffffffffffffffffffffffffffffffffff1673ffffffffffffffffffffffffffffffffffffffff168152602001610bb862ffffff1681526020013073ffffffffffffffffffffffffffffffffffffffff1681526020014281526020018381526020015f81526020015f73ffffffffffffffffffffffffffffffffffffffff1681525090505f5f5f9054906101000a900473ffffffffffffffffffffffffffffffffffffffff1673ffffffffffffffffffffffffffffffffffffffff1663414bf389836040518263ffffffff1660e01b81526004016104fb9190611125565b6020604051808303815f875af1158015610517573d5f5f3e3d5ffd5b505050506040513d601f19601f8201168201806040525081019061053b919061113f565b90505f818561054a9190611197565b905060035f9054906101000a900473ffffffffffffffffffffffffffffffffffffffff1673ffffffffffffffffffffffffffffffffffffffff1663095ea7b360025f9054906101000a900473ffffffffffffffffffffffffffffffffffffffff16836040518363ffffffff1660e01b81526004016105c9929190611032565b6020604051808303815f875af11580156105e5573d5f5f3e3d5ffd5b505050506040513d601f19601f820116820180604052508101906106099190610d3b565b5060025f9054906101000a900473ffffffffffffffffffffffffffffffffffffffff1673ffffffffffffffffffffffffffffffffffffffff1663617ba03760035f9054906101000a900473ffffffffffffffffffffffffffffffffffffffff1683305f6040518563ffffffff1660e01b815260040161068b9493929190611219565b5f604051808303815f87803b1580156106a2575f5ffd5b505af11580156106b4573d5f5f3e3d5ffd5b5050505060025f9054906101000a900473ffffffffffffffffffffffffffffffffffffffff1673ffffffffffffffffffffffffffffffffffffffff1663a415bcad60045f9054906101000a900473ffffffffffffffffffffffffffffffffffffffff168660025f306040518663ffffffff1660e01b815260040161073c959493929190611295565b5f604051808303815f87803b158015610753575f5ffd5b505af1158015610765573d5f5f3e3d5ffd5b5050505060045f9054906101000a900473ffffffffffffffffffffffffffffffffffffffff1673ffffffffffffffffffffffffffffffffffffffff1663a9059cbb60015f9054906101000a900473ffffffffffffffffffffffffffffffffffffffff16866040518363ffffffff1660e01b81526004016107e6929190611032565b6020604051808303815f875af1158015610802573d5f5f3e3d5ffd5b505050506040513d601f19601f820116820180604052508101906108269190610d3b565b50505050505050505050565b5f604051905090565b5f5ffd5b5f5ffd5b5f819050919050565b61085581610843565b811461085f575f5ffd5b50565b5f813590506108708161084c565b92915050565b5f5f6040838503121561088c5761088b61083b565b5b5f61089985828601610862565b92505060206108aa85828601610862565b9150509250929050565b5f5ffd5b5f601f19601f8301169050919050565b7f4e487b71000000000000000000000000000000000000000000000000000000005f52604160045260245ffd5b6108fe826108b8565b810181811067ffffffffffffffff8211171561091d5761091c6108c8565b5b80604052505050565b5f61092f610832565b905061093b82826108f5565b919050565b5f67ffffffffffffffff82111561095a576109596108c8565b5b602082029050602081019050919050565b5f5ffd5b5f73ffffffffffffffffffffffffffffffffffffffff82169050919050565b5f6109988261096f565b9050919050565b5f6109a98261098e565b9050919050565b6109b98161099f565b81146109c3575f5ffd5b50565b5f813590506109d4816109b0565b92915050565b5f6109ec6109e784610940565b610926565b90508083825260208201905060208402830185811115610a0f57610a0e61096b565b5b835b81811015610a385780610a2488826109c6565b845260208401935050602081019050610a11565b5050509392505050565b5f82601f830112610a5657610a556108b4565b5b8135610a668482602086016109da565b91505092915050565b5f67ffffffffffffffff821115610a8957610a886108c8565b5b602082029050602081019050919050565b5f610aac610aa784610a6f565b610926565b90508083825260208201905060208402830185811115610acf57610ace61096b565b5b835b81811015610af85780610ae48882610862565b845260208401935050602081019050610ad1565b5050509392505050565b5f82601f830112610b1657610b156108b4565b5b8135610b26848260208601610a9a565b91505092915050565b5f5ffd5b5f67ffffffffffffffff821115610b4d57610b4c6108c8565b5b610b56826108b8565b9050602081019050919050565b828183375f83830152505050565b5f610b83610b7e84610b33565b610926565b905082815260208101848484011115610b9f57610b9e610b2f565b5b610baa848285610b63565b509392505050565b5f82601f830112610bc657610bc56108b4565b5b8135610bd6848260208601610b71565b91505092915050565b5f5f5f5f60808587031215610bf757610bf661083b565b5b5f85013567ffffffffffffffff811115610c1457610c1361083f565b5b610c2087828801610a42565b945050602085013567ffffffffffffffff811115610c4157610c4061083f565b5b610c4d87828801610b02565b935050604085013567ffffffffffffffff811115610c6e57610c6d61083f565b5b610c7a87828801610b02565b925050606085013567ffffffffffffffff811115610c9b57610c9a61083f565b5b610ca787828801610bb2565b91505092959194509250565b610cbc8161098e565b82525050565b610ccb81610843565b82525050565b5f606082019050610ce45f830186610cb3565b610cf16020830185610cb3565b610cfe6040830184610cc2565b949350505050565b5f8115159050919050565b610d1a81610d06565b8114610d24575f5ffd5b50565b5f81519050610d3581610d11565b92915050565b5f60208284031215610d5057610d4f61083b565b5b5f610d5d84828501610d27565b91505092915050565b7f4e487b71000000000000000000000000000000000000000000000000000000005f52603260045260245ffd5b5f604082019050610da65f830185610cc2565b610db36020830184610cc2565b9392505050565b5f81519050919050565b5f82825260208201905092915050565b5f819050602082019050919050565b610dec8161098e565b82525050565b5f610dfd8383610de3565b60208301905092915050565b5f602082019050919050565b5f610e1f82610dba565b610e298185610dc4565b9350610e3483610dd4565b805f5b83811015610e64578151610e4b8882610df2565b9750610e5683610e09565b925050600181019050610e37565b5085935050505092915050565b5f81519050919050565b5f82825260208201905092915050565b5f819050602082019050919050565b610ea381610843565b82525050565b5f610eb48383610e9a565b60208301905092915050565b5f602082019050919050565b5f610ed682610e71565b610ee08185610e7b565b9350610eeb83610e8b565b805f5b83811015610f1b578151610f028882610ea9565b9750610f0d83610ec0565b925050600181019050610eee565b5085935050505092915050565b5f81519050919050565b5f82825260208201905092915050565b8281835e5f83830152505050565b5f610f5a82610f28565b610f648185610f32565b9350610f74818560208601610f42565b610f7d816108b8565b840191505092915050565b5f608082019050610f9b5f830187610cb3565b8181036020830152610fad8186610e15565b90508181036040830152610fc18185610ecc565b90508181036060830152610fd58184610f50565b905095945050505050565b5f81519050610fee8161084c565b92915050565b5f5f6040838503121561100a5761100961083b565b5b5f61101785828601610fe0565b925050602061102885828601610fe0565b9150509250929050565b5f6040820190506110455f830185610cb3565b6110526020830184610cc2565b9392505050565b5f62ffffff82169050919050565b61107081611059565b82525050565b61107f8161096f565b82525050565b61010082015f82015161109a5f850182610de3565b5060208201516110ad6020850182610de3565b5060408201516110c06040850182611067565b5060608201516110d36060850182610de3565b5060808201516110e66080850182610e9a565b5060a08201516110f960a0850182610e9a565b5060c082015161110c60c0850182610e9a565b5060e082015161111f60e0850182611076565b50505050565b5f610100820190506111395f830184611085565b92915050565b5f602082840312156111545761115361083b565b5b5f61116184828501610fe0565b91505092915050565b7f4e487b71000000000000000000000000000000000000000000000000000000005f52601160045260245ffd5b5f6111a182610843565b91506111ac83610843565b92508282019050808211156111c4576111c361116a565b5b92915050565b5f819050919050565b5f61ffff82169050919050565b5f819050919050565b5f6112036111fe6111f9846111ca565b6111e0565b6111d3565b9050919050565b611213816111e9565b82525050565b5f60808201905061122c5f830187610cb3565b6112396020830186610cc2565b6112466040830185610cb3565b611253606083018461120a565b95945050505050565b5f819050919050565b5f61127f61127a6112758461125c565b6111e0565b610843565b9050919050565b61128f81611265565b82525050565b5f60a0820190506112a85f830188610cb3565b6112b56020830187610cc2565b6112c26040830186611286565b6112cf606083018561120a565b6112dc6080830184610cb3565b969550505050505056fea26469706673582212208e2a387a0739d226eefbb4a3dd8a7fcf9645bd8b5484bf4b4a8df55f3605efda64736f6c634300081d0033","linkReferences":{}},"methodIdentifiers":{"loopingSupply(uint256,uint256)":"686ddb73","receiveFlashLoan(address[],uint256[],uint256[],bytes)":"f04f2707"},"id":22}