{"abi":[{"type":"constructor","inputs":[],"stateMutability":"nonpayable"},{"type":"function","name":"allowance","inputs":[{"name":"owner","type":"address","internalType":"address"},{"name":"spender","type":"address","internalType":"address"}],"outputs":[{"name":"","type":"uint256","internalType":"uint256"}],"stateMutability":"view"},{"type":"function","name":"approve","inputs":[{"name":"spender","type":"address","internalType":"address"},{"name":"value","type":"uint256","internalType":"uint256"}],"outputs":[{"name":"","type":"bool","internalType":"bool"}],"stateMutability":"nonpayable"},{"type":"function","name":"balanceOf","inputs":[{"name":"account","type":"address","internalType":"address"}],"outputs":[{"name":"","type":"uint256","internalType":"uint256"}],"stateMutability":"view"},{"type":"function","name":"decimals","inputs":[],"outputs":[{"name":"","type":"uint8","internalType":"uint8"}],"stateMutability":"view"},{"type":"function","name":"deposit","inputs":[{"name":"amount","type":"uint256","internalType":"uint256"}],"outputs":[],"stateMutability":"nonpayable"},{"type":"function","name":"name","inputs":[],"outputs":[{"name":"","type":"string","internalType":"string"}],"stateMutability":"view"},{"type":"function","name":"symbol","inputs":[],"outputs":[{"name":"","type":"string","internalType":"string"}],"stateMutability":"view"},{"type":"function","name":"totalAsset","inputs":[],"outputs":[{"name":"","type":"uint256","internalType":"uint256"}],"stateMutability":"nonpayable"},{"type":"function","name":"totalSupply","inputs":[],"outputs":[{"name":"","type":"uint256","internalType":"uint256"}],"stateMutability":"view"},{"type":"function","name":"transfer","inputs":[{"name":"to","type":"address","internalType":"address"},{"name":"value","type":"uint256","internalType":"uint256"}],"outputs":[{"name":"","type":"bool","internalType":"bool"}],"stateMutability":"nonpayable"},{"type":"function","name":"transferFrom","inputs":[{"name":"from","type":"address","internalType":"address"},{"name":"to","type":"address","internalType":"address"},{"name":"value","type":"uint256","internalType":"uint256"}],"outputs":[{"name":"","type":"bool","internalType":"bool"}],"stateMutability":"nonpayable"},{"type":"function","name":"withdraw","inputs":[{"name":"share","type":"uint256","internalType":"uint256"}],"outputs":[],"stateMutability":"nonpayable"},{"type":"event","name":"Approval","inputs":[{"name":"owner","type":"address","indexed":true,"internalType":"address"},{"name":"spender","type":"address","indexed":true,"internalType":"address"},{"name":"value","type":"uint256","indexed":false,"internalType":"uint256"}],"anonymous":false},{"type":"event","name":"Deposit","inputs":[{"name":"user","type":"address","indexed":false,"internalType":"address"},{"name":"amount","type":"uint256","indexed":false,"internalType":"uint256"},{"name":"shares","type":"uint256","indexed":false,"internalType":"uint256"}],"anonymous":false},{"type":"event","name":"Transfer","inputs":[{"name":"from","type":"address","indexed":true,"internalType":"address"},{"name":"to","type":"address","indexed":true,"internalType":"address"},{"name":"value","type":"uint256","indexed":false,"internalType":"uint256"}],"anonymous":false},{"type":"event","name":"Withdraw","inputs":[{"name":"user","type":"address","indexed":false,"internalType":"address"},{"name":"shares","type":"uint256","indexed":false,"internalType":"uint256"},{"name":"amount","type":"uint256","indexed":false,"internalType":"uint256"}],"anonymous":false},{"type":"error","name":"ERC20InsufficientAllowance","inputs":[{"name":"spender","type":"address","internalType":"address"},{"name":"allowance","type":"uint256","internalType":"uint256"},{"name":"needed","type":"uint256","internalType":"uint256"}]},{"type":"error","name":"ERC20InsufficientBalance","inputs":[{"name":"sender","type":"address","internalType":"address"},{"name":"balance","type":"uint256","internalType":"uint256"},{"name":"needed","type":"uint256","internalType":"uint256"}]},{"type":"error","name":"ERC20InvalidApprover","inputs":[{"name":"approver","type":"address","internalType":"address"}]},{"type":"error","name":"ERC20InvalidReceiver","inputs":[{"name":"receiver","type":"address","internalType":"address"}]},{"type":"error","name":"ERC20InvalidSender","inputs":[{"name":"sender","type":"address","internalType":"address"}]},{"type":"error","name":"ERC20InvalidSpender","inputs":[{"name":"spender","type":"address","internalType":"address"}]},{"type":"error","name":"InsufficientShares","inputs":[]},{"type":"error","name":"ZeroAmount","inputs":[]}],"bytecode":{"object":"0x608060405273e592427a0aece92de3edee1f18e0157c0586156460055f6101000a81548173ffffffffffffffffffffffffffffffffffffffff021916908373ffffffffffffffffffffffffffffffffffffffff1602179055507382af49447d8a07e3bd95bd0d56f35241523fbab160065f6101000a81548173ffffffffffffffffffffffffffffffffffffffff021916908373ffffffffffffffffffffffffffffffffffffffff16021790555073af88d065e77c8cc2239327c5edb3a432268e583160075f6101000a81548173ffffffffffffffffffffffffffffffffffffffff021916908373ffffffffffffffffffffffffffffffffffffffff160217905550732f2a2543b76a4166549f7aab2e75bef0aefc5b0f60085f6101000a81548173ffffffffffffffffffffffffffffffffffffffff021916908373ffffffffffffffffffffffffffffffffffffffff1602179055507350834f3163758fcc1df9973b6e91f0f0f0434ad360095f6101000a81548173ffffffffffffffffffffffffffffffffffffffff021916908373ffffffffffffffffffffffffffffffffffffffff160217905550736ce185860a4963106506c203335a2910413708e9600a5f6101000a81548173ffffffffffffffffffffffffffffffffffffffff021916908373ffffffffffffffffffffffffffffffffffffffff16021790555073639fe6ab55c921f74e7fac1ee960c0b6293ba612600b5f6101000a81548173ffffffffffffffffffffffffffffffffffffffff021916908373ffffffffffffffffffffffffffffffffffffffff16021790555034801561025b575f5ffd5b506040518060400160405280600981526020017f52656b736164616e6100000000000000000000000000000000000000000000008152506040518060400160405280600481526020017f524b53440000000000000000000000000000000000000000000000000000000081525081600390816102d7919061052c565b5080600490816102e7919061052c565b5050506105fb565b5f81519050919050565b7f4e487b71000000000000000000000000000000000000000000000000000000005f52604160045260245ffd5b7f4e487b71000000000000000000000000000000000000000000000000000000005f52602260045260245ffd5b5f600282049050600182168061036a57607f821691505b60208210810361037d5761037c610326565b5b50919050565b5f819050815f5260205f209050919050565b5f6020601f8301049050919050565b5f82821b905092915050565b5f600883026103df7fffffffffffffffffffffffffffffffffffffffffffffffffffffffffffffffff826103a4565b6103e986836103a4565b95508019841693508086168417925050509392505050565b5f819050919050565b5f819050919050565b5f61042d61042861042384610401565b61040a565b610401565b9050919050565b5f819050919050565b61044683610413565b61045a61045282610434565b8484546103b0565b825550505050565b5f5f905090565b610471610462565b61047c81848461043d565b505050565b5b8181101561049f576104945f82610469565b600181019050610482565b5050565b601f8211156104e4576104b581610383565b6104be84610395565b810160208510156104cd578190505b6104e16104d985610395565b830182610481565b50505b505050565b5f82821c905092915050565b5f6105045f19846008026104e9565b1980831691505092915050565b5f61051c83836104f5565b9150826002028217905092915050565b610535826102ef565b67ffffffffffffffff81111561054e5761054d6102f9565b5b6105588254610353565b6105638282856104a3565b5f60209050601f831160018114610594575f8415610582578287015190505b61058c8582610511565b8655506105f3565b601f1984166105a286610383565b5f5b828110156105c9578489015182556001820191506020850194506020810190506105a4565b868310156105e657848901516105e2601f8916826104f5565b8355505b6001600288020188555050505b505050505050565b612333806106085f395ff3fe608060405234801561000f575f5ffd5b50600436106100b2575f3560e01c806370a082311161006f57806370a082311461018c57806395d89b41146101bc578063a9059cbb146101da578063b6b55f251461020a578063dd62ed3e14610226578063f9557ccb14610256576100b2565b806306fdde03146100b6578063095ea7b3146100d457806318160ddd1461010457806323b872dd146101225780632e1a7d4d14610152578063313ce5671461016e575b5f5ffd5b6100be610274565b6040516100cb9190611c06565b60405180910390f35b6100ee60048036038101906100e99190611cb7565b610304565b6040516100fb9190611d0f565b60405180910390f35b61010c610326565b6040516101199190611d37565b60405180910390f35b61013c60048036038101906101379190611d50565b61032f565b6040516101499190611d0f565b60405180910390f35b61016c60048036038101906101679190611da0565b61035d565b005b610176610a2c565b6040516101839190611de6565b60405180910390f35b6101a660048036038101906101a19190611dff565b610a34565b6040516101b39190611d37565b60405180910390f35b6101c4610a79565b6040516101d19190611c06565b60405180910390f35b6101f460048036038101906101ef9190611cb7565b610b09565b6040516102019190611d0f565b60405180910390f35b610224600480360381019061021f9190611da0565b610b2b565b005b610240600480360381019061023b9190611e2a565b611110565b60405161024d9190611d37565b60405180910390f35b61025e611192565b60405161026b9190611d37565b60405180910390f35b60606003805461028390611e95565b80601f01602080910402602001604051908101604052809291908181526020018280546102af90611e95565b80156102fa5780601f106102d1576101008083540402835291602001916102fa565b820191905f5260205f20905b8154815290600101906020018083116102dd57829003601f168201915b5050505050905090565b5f5f61030e611514565b905061031b81858561151b565b600191505092915050565b5f600254905090565b5f5f610339611514565b905061034685828561152d565b6103518585856115c0565b60019150509392505050565b5f8103610396576040517f1f2a200500000000000000000000000000000000000000000000000000000000815260040160405180910390fd5b61039f33610a34565b8111156103d8576040517f3999656700000000000000000000000000000000000000000000000000000000815260040160405180910390fd5b5f6103e1610326565b90505f670de0b6b3a764000090505f8282856103fd9190611ef2565b6104079190611f60565b90505f8260065f9054906101000a900473ffffffffffffffffffffffffffffffffffffffff1673ffffffffffffffffffffffffffffffffffffffff166370a08231306040518263ffffffff1660e01b81526004016104659190611f9f565b602060405180830381865afa158015610480573d5f5f3e3d5ffd5b505050506040513d601f19601f820116820180604052508101906104a49190611fcc565b836104af9190611ef2565b6104b99190611f60565b90505f8360085f9054906101000a900473ffffffffffffffffffffffffffffffffffffffff1673ffffffffffffffffffffffffffffffffffffffff166370a08231306040518263ffffffff1660e01b81526004016105179190611f9f565b602060405180830381865afa158015610532573d5f5f3e3d5ffd5b505050506040513d601f19601f820116820180604052508101906105569190611fcc565b846105619190611ef2565b61056b9190611f60565b905061057733876116b0565b60065f9054906101000a900473ffffffffffffffffffffffffffffffffffffffff1673ffffffffffffffffffffffffffffffffffffffff1663095ea7b360055f9054906101000a900473ffffffffffffffffffffffffffffffffffffffff16846040518363ffffffff1660e01b81526004016105f4929190611ff7565b6020604051808303815f875af1158015610610573d5f5f3e3d5ffd5b505050506040513d601f19601f820116820180604052508101906106349190612048565b505f60405180610100016040528060065f9054906101000a900473ffffffffffffffffffffffffffffffffffffffff1673ffffffffffffffffffffffffffffffffffffffff16815260200160075f9054906101000a900473ffffffffffffffffffffffffffffffffffffffff1673ffffffffffffffffffffffffffffffffffffffff168152602001610bb862ffffff1681526020013073ffffffffffffffffffffffffffffffffffffffff1681526020014281526020018481526020015f81526020015f73ffffffffffffffffffffffffffffffffffffffff16815250905060085f9054906101000a900473ffffffffffffffffffffffffffffffffffffffff1673ffffffffffffffffffffffffffffffffffffffff1663095ea7b360055f9054906101000a900473ffffffffffffffffffffffffffffffffffffffff16846040518363ffffffff1660e01b8152600401610790929190611ff7565b6020604051808303815f875af11580156107ac573d5f5f3e3d5ffd5b505050506040513d601f19601f820116820180604052508101906107d09190612048565b5060405180610100016040528060085f9054906101000a900473ffffffffffffffffffffffffffffffffffffffff1673ffffffffffffffffffffffffffffffffffffffff16815260200160075f9054906101000a900473ffffffffffffffffffffffffffffffffffffffff1673ffffffffffffffffffffffffffffffffffffffff168152602001610bb862ffffff1681526020013073ffffffffffffffffffffffffffffffffffffffff1681526020014281526020018381526020015f81526020015f73ffffffffffffffffffffffffffffffffffffffff1681525090505f60075f9054906101000a900473ffffffffffffffffffffffffffffffffffffffff1673ffffffffffffffffffffffffffffffffffffffff166370a08231306040518263ffffffff1660e01b81526004016109099190611f9f565b602060405180830381865afa158015610924573d5f5f3e3d5ffd5b505050506040513d601f19601f820116820180604052508101906109489190611fcc565b905060075f9054906101000a900473ffffffffffffffffffffffffffffffffffffffff1673ffffffffffffffffffffffffffffffffffffffff1663a9059cbb33836040518363ffffffff1660e01b81526004016109a6929190611ff7565b6020604051808303815f875af11580156109c2573d5f5f3e3d5ffd5b505050506040513d601f19601f820116820180604052508101906109e69190612048565b507ff279e6a1f5e320cca91135676d9cb6e44ca8a08c0b88342bcdb1144f6511b568338983604051610a1a93929190612073565b60405180910390a15050505050505050565b5f6012905090565b5f5f5f8373ffffffffffffffffffffffffffffffffffffffff1673ffffffffffffffffffffffffffffffffffffffff1681526020019081526020015f20549050919050565b606060048054610a8890611e95565b80601f0160208091040260200160405190810160405280929190818152602001828054610ab490611e95565b8015610aff5780601f10610ad657610100808354040283529160200191610aff565b820191905f5260205f20905b815481529060010190602001808311610ae257829003601f168201915b5050505050905090565b5f5f610b13611514565b9050610b208185856115c0565b600191505092915050565b5f8103610b64576040517f1f2a200500000000000000000000000000000000000000000000000000000000815260040160405180910390fd5b5f610b6d611192565b90505f610b78610326565b90505f5f90505f8203610b8d57839050610ba7565b828285610b9a9190611ef2565b610ba49190611f60565b90505b60075f9054906101000a900473ffffffffffffffffffffffffffffffffffffffff1673ffffffffffffffffffffffffffffffffffffffff166323b872dd3330876040518463ffffffff1660e01b8152600401610c05939291906120a8565b6020604051808303815f875af1158015610c21573d5f5f3e3d5ffd5b505050506040513d601f19601f82011682018060405250810190610c459190612048565b50610c50338261172f565b5f600285610c5e9190611f60565b905060075f9054906101000a900473ffffffffffffffffffffffffffffffffffffffff1673ffffffffffffffffffffffffffffffffffffffff1663095ea7b360055f9054906101000a900473ffffffffffffffffffffffffffffffffffffffff16836040518363ffffffff1660e01b8152600401610cdd929190611ff7565b6020604051808303815f875af1158015610cf9573d5f5f3e3d5ffd5b505050506040513d601f19601f82011682018060405250810190610d1d9190612048565b505f60405180610100016040528060075f9054906101000a900473ffffffffffffffffffffffffffffffffffffffff1673ffffffffffffffffffffffffffffffffffffffff16815260200160065f9054906101000a900473ffffffffffffffffffffffffffffffffffffffff1673ffffffffffffffffffffffffffffffffffffffff168152602001610bb862ffffff1681526020013073ffffffffffffffffffffffffffffffffffffffff1681526020014281526020018381526020015f81526020015f73ffffffffffffffffffffffffffffffffffffffff16815250905060055f9054906101000a900473ffffffffffffffffffffffffffffffffffffffff1673ffffffffffffffffffffffffffffffffffffffff1663414bf389826040518263ffffffff1660e01b8152600401610e5691906121c7565b6020604051808303815f875af1158015610e72573d5f5f3e3d5ffd5b505050506040513d601f19601f82011682018060405250810190610e969190611fcc565b5060075f9054906101000a900473ffffffffffffffffffffffffffffffffffffffff1673ffffffffffffffffffffffffffffffffffffffff1663095ea7b360055f9054906101000a900473ffffffffffffffffffffffffffffffffffffffff16846040518363ffffffff1660e01b8152600401610f14929190611ff7565b6020604051808303815f875af1158015610f30573d5f5f3e3d5ffd5b505050506040513d601f19601f82011682018060405250810190610f549190612048565b5060405180610100016040528060075f9054906101000a900473ffffffffffffffffffffffffffffffffffffffff1673ffffffffffffffffffffffffffffffffffffffff16815260200160085f9054906101000a900473ffffffffffffffffffffffffffffffffffffffff1673ffffffffffffffffffffffffffffffffffffffff168152602001610bb862ffffff1681526020013073ffffffffffffffffffffffffffffffffffffffff1681526020014281526020018381526020015f81526020015f73ffffffffffffffffffffffffffffffffffffffff16815250905060055f9054906101000a900473ffffffffffffffffffffffffffffffffffffffff1673ffffffffffffffffffffffffffffffffffffffff1663414bf389826040518263ffffffff1660e01b815260040161108c91906121c7565b6020604051808303815f875af11580156110a8573d5f5f3e3d5ffd5b505050506040513d601f19601f820116820180604052508101906110cc9190611fcc565b507f90890809c654f11d6e72a28fa60149770a0d11ec6c92319d6ceb2bb0a4ea1a1533878560405161110093929190612073565b60405180910390a1505050505050565b5f60015f8473ffffffffffffffffffffffffffffffffffffffff1673ffffffffffffffffffffffffffffffffffffffff1681526020019081526020015f205f8373ffffffffffffffffffffffffffffffffffffffff1673ffffffffffffffffffffffffffffffffffffffff1681526020019081526020015f2054905092915050565b5f5f60095f9054906101000a900473ffffffffffffffffffffffffffffffffffffffff1673ffffffffffffffffffffffffffffffffffffffff1663feaf968c6040518163ffffffff1660e01b815260040160a060405180830381865afa1580156111fe573d5f5f3e3d5ffd5b505050506040513d601f19601f820116820180604052508101906112229190612253565b5050509150505f600a5f9054906101000a900473ffffffffffffffffffffffffffffffffffffffff1673ffffffffffffffffffffffffffffffffffffffff1663feaf968c6040518163ffffffff1660e01b815260040160a060405180830381865afa158015611293573d5f5f3e3d5ffd5b505050506040513d601f19601f820116820180604052508101906112b79190612253565b5050509150505f82620f4240836112ce9190611ef2565b6112d89190611f60565b90505f600b5f9054906101000a900473ffffffffffffffffffffffffffffffffffffffff1673ffffffffffffffffffffffffffffffffffffffff1663feaf968c6040518163ffffffff1660e01b815260040160a060405180830381865afa158015611345573d5f5f3e3d5ffd5b505050506040513d601f19601f820116820180604052508101906113699190612253565b5050509150505f84620f4240836113809190611ef2565b61138a9190611f60565b90505f670de0b6b3a76400008260065f9054906101000a900473ffffffffffffffffffffffffffffffffffffffff1673ffffffffffffffffffffffffffffffffffffffff166370a08231306040518263ffffffff1660e01b81526004016113f19190611f9f565b602060405180830381865afa15801561140c573d5f5f3e3d5ffd5b505050506040513d601f19601f820116820180604052508101906114309190611fcc565b61143a9190611ef2565b6114449190611f60565b90505f6305f5e1008560085f9054906101000a900473ffffffffffffffffffffffffffffffffffffffff1673ffffffffffffffffffffffffffffffffffffffff166370a08231306040518263ffffffff1660e01b81526004016114a79190611f9f565b602060405180830381865afa1580156114c2573d5f5f3e3d5ffd5b505050506040513d601f19601f820116820180604052508101906114e69190611fcc565b6114f09190611ef2565b6114fa9190611f60565b9050808261150891906122ca565b97505050505050505090565b5f33905090565b61152883838360016117ae565b505050565b5f6115388484611110565b90507fffffffffffffffffffffffffffffffffffffffffffffffffffffffffffffffff8110156115ba57818110156115ab578281836040517ffb8f41b20000000000000000000000000000000000000000000000000000000081526004016115a293929190612073565b60405180910390fd5b6115b984848484035f6117ae565b5b50505050565b5f73ffffffffffffffffffffffffffffffffffffffff168373ffffffffffffffffffffffffffffffffffffffff1603611630575f6040517f96c6fd1e0000000000000000000000000000000000000000000000000000000081526004016116279190611f9f565b60405180910390fd5b5f73ffffffffffffffffffffffffffffffffffffffff168273ffffffffffffffffffffffffffffffffffffffff16036116a0575f6040517fec442f050000000000000000000000000000000000000000000000000000000081526004016116979190611f9f565b60405180910390fd5b6116ab83838361197d565b505050565b5f73ffffffffffffffffffffffffffffffffffffffff168273ffffffffffffffffffffffffffffffffffffffff1603611720575f6040517f96c6fd1e0000000000000000000000000000000000000000000000000000000081526004016117179190611f9f565b60405180910390fd5b61172b825f8361197d565b5050565b5f73ffffffffffffffffffffffffffffffffffffffff168273ffffffffffffffffffffffffffffffffffffffff160361179f575f6040517fec442f050000000000000000000000000000000000000000000000000000000081526004016117969190611f9f565b60405180910390fd5b6117aa5f838361197d565b5050565b5f73ffffffffffffffffffffffffffffffffffffffff168473ffffffffffffffffffffffffffffffffffffffff160361181e575f6040517fe602df050000000000000000000000000000000000000000000000000000000081526004016118159190611f9f565b60405180910390fd5b5f73ffffffffffffffffffffffffffffffffffffffff168373ffffffffffffffffffffffffffffffffffffffff160361188e575f6040517f94280d620000000000000000000000000000000000000000000000000000000081526004016118859190611f9f565b60405180910390fd5b8160015f8673ffffffffffffffffffffffffffffffffffffffff1673ffffffffffffffffffffffffffffffffffffffff1681526020019081526020015f205f8573ffffffffffffffffffffffffffffffffffffffff1673ffffffffffffffffffffffffffffffffffffffff1681526020019081526020015f20819055508015611977578273ffffffffffffffffffffffffffffffffffffffff168473ffffffffffffffffffffffffffffffffffffffff167f8c5be1e5ebec7d5bd14f71427d1e84f3dd0314c0f7b2291e5b200ac8c7c3b9258460405161196e9190611d37565b60405180910390a35b50505050565b5f73ffffffffffffffffffffffffffffffffffffffff168373ffffffffffffffffffffffffffffffffffffffff16036119cd578060025f8282546119c191906122ca565b92505081905550611a9b565b5f5f5f8573ffffffffffffffffffffffffffffffffffffffff1673ffffffffffffffffffffffffffffffffffffffff1681526020019081526020015f2054905081811015611a56578381836040517fe450d38c000000000000000000000000000000000000000000000000000000008152600401611a4d93929190612073565b60405180910390fd5b8181035f5f8673ffffffffffffffffffffffffffffffffffffffff1673ffffffffffffffffffffffffffffffffffffffff1681526020019081526020015f2081905550505b5f73ffffffffffffffffffffffffffffffffffffffff168273ffffffffffffffffffffffffffffffffffffffff1603611ae2578060025f8282540392505081905550611b2c565b805f5f8473ffffffffffffffffffffffffffffffffffffffff1673ffffffffffffffffffffffffffffffffffffffff1681526020019081526020015f205f82825401925050819055505b8173ffffffffffffffffffffffffffffffffffffffff168373ffffffffffffffffffffffffffffffffffffffff167fddf252ad1be2c89b69c2b068fc378daa952ba7f163c4a11628f55a4df523b3ef83604051611b899190611d37565b60405180910390a3505050565b5f81519050919050565b5f82825260208201905092915050565b8281835e5f83830152505050565b5f601f19601f8301169050919050565b5f611bd882611b96565b611be28185611ba0565b9350611bf2818560208601611bb0565b611bfb81611bbe565b840191505092915050565b5f6020820190508181035f830152611c1e8184611bce565b905092915050565b5f5ffd5b5f73ffffffffffffffffffffffffffffffffffffffff82169050919050565b5f611c5382611c2a565b9050919050565b611c6381611c49565b8114611c6d575f5ffd5b50565b5f81359050611c7e81611c5a565b92915050565b5f819050919050565b611c9681611c84565b8114611ca0575f5ffd5b50565b5f81359050611cb181611c8d565b92915050565b5f5f60408385031215611ccd57611ccc611c26565b5b5f611cda85828601611c70565b9250506020611ceb85828601611ca3565b9150509250929050565b5f8115159050919050565b611d0981611cf5565b82525050565b5f602082019050611d225f830184611d00565b92915050565b611d3181611c84565b82525050565b5f602082019050611d4a5f830184611d28565b92915050565b5f5f5f60608486031215611d6757611d66611c26565b5b5f611d7486828701611c70565b9350506020611d8586828701611c70565b9250506040611d9686828701611ca3565b9150509250925092565b5f60208284031215611db557611db4611c26565b5b5f611dc284828501611ca3565b91505092915050565b5f60ff82169050919050565b611de081611dcb565b82525050565b5f602082019050611df95f830184611dd7565b92915050565b5f60208284031215611e1457611e13611c26565b5b5f611e2184828501611c70565b91505092915050565b5f5f60408385031215611e4057611e3f611c26565b5b5f611e4d85828601611c70565b9250506020611e5e85828601611c70565b9150509250929050565b7f4e487b71000000000000000000000000000000000000000000000000000000005f52602260045260245ffd5b5f6002820490506001821680611eac57607f821691505b602082108103611ebf57611ebe611e68565b5b50919050565b7f4e487b71000000000000000000000000000000000000000000000000000000005f52601160045260245ffd5b5f611efc82611c84565b9150611f0783611c84565b9250828202611f1581611c84565b91508282048414831517611f2c57611f2b611ec5565b5b5092915050565b7f4e487b71000000000000000000000000000000000000000000000000000000005f52601260045260245ffd5b5f611f6a82611c84565b9150611f7583611c84565b925082611f8557611f84611f33565b5b828204905092915050565b611f9981611c49565b82525050565b5f602082019050611fb25f830184611f90565b92915050565b5f81519050611fc681611c8d565b92915050565b5f60208284031215611fe157611fe0611c26565b5b5f611fee84828501611fb8565b91505092915050565b5f60408201905061200a5f830185611f90565b6120176020830184611d28565b9392505050565b61202781611cf5565b8114612031575f5ffd5b50565b5f815190506120428161201e565b92915050565b5f6020828403121561205d5761205c611c26565b5b5f61206a84828501612034565b91505092915050565b5f6060820190506120865f830186611f90565b6120936020830185611d28565b6120a06040830184611d28565b949350505050565b5f6060820190506120bb5f830186611f90565b6120c86020830185611f90565b6120d56040830184611d28565b949350505050565b6120e681611c49565b82525050565b5f62ffffff82169050919050565b612103816120ec565b82525050565b61211281611c84565b82525050565b61212181611c2a565b82525050565b61010082015f82015161213c5f8501826120dd565b50602082015161214f60208501826120dd565b50604082015161216260408501826120fa565b50606082015161217560608501826120dd565b5060808201516121886080850182612109565b5060a082015161219b60a0850182612109565b5060c08201516121ae60c0850182612109565b5060e08201516121c160e0850182612118565b50505050565b5f610100820190506121db5f830184612127565b92915050565b5f69ffffffffffffffffffff82169050919050565b6121ff816121e1565b8114612209575f5ffd5b50565b5f8151905061221a816121f6565b92915050565b5f819050919050565b61223281612220565b811461223c575f5ffd5b50565b5f8151905061224d81612229565b92915050565b5f5f5f5f5f60a0868803121561226c5761226b611c26565b5b5f6122798882890161220c565b955050602061228a8882890161223f565b945050604061229b88828901611fb8565b93505060606122ac88828901611fb8565b92505060806122bd8882890161220c565b9150509295509295909350565b5f6122d482611c84565b91506122df83611c84565b92508282019050808211156122f7576122f6611ec5565b5b9291505056fea2646970667358221220baedd402828c53d63ee365eb3d67f2a2d326791a2f759d959124847b4da66e4a64736f6c634300081d0033","linkReferences":{}},"methodIdentifiers":{"allowance(address,address)":"dd62ed3e","approve(address,uint256)":"095ea7b3","balanceOf(address)":"70a08231","decimals()":"313ce567","deposit(uint256)":"b6b55f25","name()":"06fdde03","symbol()":"95d89b41","totalAsset()":"f9557ccb","totalSupply()":"18160ddd","transfer(address,uint256)":"a9059cbb","transferFrom(address,address,uint256)":"23b872dd","withdraw(uint256)":"2e1a7d4d"},"id":26}