{"abi":[{"type":"constructor","inputs":[],"stateMutability":"nonpayable"},{"type":"function","name":"allowance","inputs":[{"name":"owner","type":"address","internalType":"address"},{"name":"spender","type":"address","internalType":"address"}],"outputs":[{"name":"","type":"uint256","internalType":"uint256"}],"stateMutability":"view"},{"type":"function","name":"approve","inputs":[{"name":"spender","type":"address","internalType":"address"},{"name":"value","type":"uint256","internalType":"uint256"}],"outputs":[{"name":"","type":"bool","internalType":"bool"}],"stateMutability":"nonpayable"},{"type":"function","name":"balanceOf","inputs":[{"name":"account","type":"address","internalType":"address"}],"outputs":[{"name":"","type":"uint256","internalType":"uint256"}],"stateMutability":"view"},{"type":"function","name":"decimals","inputs":[],"outputs":[{"name":"","type":"uint8","internalType":"uint8"}],"stateMutability":"pure"},{"type":"function","name":"initialize","inputs":[],"outputs":[],"stateMutability":"nonpayable"},{"type":"function","name":"mint","inputs":[{"name":"to","type":"address","internalType":"address"},{"name":"amount","type":"uint256","internalType":"uint256"}],"outputs":[],"stateMutability":"nonpayable"},{"type":"function","name":"name","inputs":[],"outputs":[{"name":"","type":"string","internalType":"string"}],"stateMutability":"view"},{"type":"function","name":"symbol","inputs":[],"outputs":[{"name":"","type":"string","internalType":"string"}],"stateMutability":"view"},{"type":"function","name":"totalSupply","inputs":[],"outputs":[{"name":"","type":"uint256","internalType":"uint256"}],"stateMutability":"view"},{"type":"function","name":"transfer","inputs":[{"name":"to","type":"address","internalType":"address"},{"name":"value","type":"uint256","internalType":"uint256"}],"outputs":[{"name":"","type":"bool","internalType":"bool"}],"stateMutability":"nonpayable"},{"type":"function","name":"transferFrom","inputs":[{"name":"from","type":"address","internalType":"address"},{"name":"to","type":"address","internalType":"address"},{"name":"value","type":"uint256","internalType":"uint256"}],"outputs":[{"name":"","type":"bool","internalType":"bool"}],"stateMutability":"nonpayable"},{"type":"event","name":"Approval","inputs":[{"name":"owner","type":"address","indexed":true,"internalType":"address"},{"name":"spender","type":"address","indexed":true,"internalType":"address"},{"name":"value","type":"uint256","indexed":false,"internalType":"uint256"}],"anonymous":false},{"type":"event","name":"Initialized","inputs":[{"name":"version","type":"uint64","indexed":false,"internalType":"uint64"}],"anonymous":false},{"type":"event","name":"Transfer","inputs":[{"name":"from","type":"address","indexed":true,"internalType":"address"},{"name":"to","type":"address","indexed":true,"internalType":"address"},{"name":"value","type":"uint256","indexed":false,"internalType":"uint256"}],"anonymous":false},{"type":"error","name":"ERC20InsufficientAllowance","inputs":[{"name":"spender","type":"address","internalType":"address"},{"name":"allowance","type":"uint256","internalType":"uint256"},{"name":"needed","type":"uint256","internalType":"uint256"}]},{"type":"error","name":"ERC20InsufficientBalance","inputs":[{"name":"sender","type":"address","internalType":"address"},{"name":"balance","type":"uint256","internalType":"uint256"},{"name":"needed","type":"uint256","internalType":"uint256"}]},{"type":"error","name":"ERC20InvalidApprover","inputs":[{"name":"approver","type":"address","internalType":"address"}]},{"type":"error","name":"ERC20InvalidReceiver","inputs":[{"name":"receiver","type":"address","internalType":"address"}]},{"type":"error","name":"ERC20InvalidSender","inputs":[{"name":"sender","type":"address","internalType":"address"}]},{"type":"error","name":"ERC20InvalidSpender","inputs":[{"name":"spender","type":"address","internalType":"address"}]},{"type":"error","name":"InvalidInitialization","inputs":[]},{"type":"error","name":"NotInitializing","inputs":[]}],"bytecode":{"object":"0x608060405234801561000f575f5ffd5b5061001e61002360201b60201c565b61019e565b5f61003261012160201b60201c565b9050805f0160089054906101000a900460ff161561007c576040517ff92ee8a900000000000000000000000000000000000000000000000000000000815260040160405180910390fd5b67ffffffffffffffff8016815f015f9054906101000a900467ffffffffffffffff1667ffffffffffffffff161461011e5767ffffffffffffffff815f015f6101000a81548167ffffffffffffffff021916908367ffffffffffffffff1602179055507fc7f505b2f371ae2175ee4913f4499e1f2633a7b5936321eed1cdaeb6115181d267ffffffffffffffff6040516101159190610185565b60405180910390a15b50565b5f5f61013161013a60201b60201c565b90508091505090565b5f7ff0c57e16840df040f15088dc2f81fe391c3923bec73e23a9662efc9c229c6a005f1b905090565b5f67ffffffffffffffff82169050919050565b61017f81610163565b82525050565b5f6020820190506101985f830184610176565b92915050565b611514806101ab5f395ff3fe608060405234801561000f575f5ffd5b50600436106100a7575f3560e01c806340c10f191161006f57806340c10f191461016557806370a08231146101815780638129fc1c146101b157806395d89b41146101bb578063a9059cbb146101d9578063dd62ed3e14610209576100a7565b806306fdde03146100ab578063095ea7b3146100c957806318160ddd146100f957806323b872dd14610117578063313ce56714610147575b5f5ffd5b6100b3610239565b6040516100c09190610e8c565b60405180910390f35b6100e360048036038101906100de9190610f3d565b6102d7565b6040516100f09190610f95565b60405180910390f35b6101016102f9565b60405161010e9190610fbd565b60405180910390f35b610131600480360381019061012c9190610fd6565b610310565b60405161013e9190610f95565b60405180910390f35b61014f61033e565b60405161015c9190611041565b60405180910390f35b61017f600480360381019061017a9190610f3d565b610346565b005b61019b6004803603810190610196919061105a565b610354565b6040516101a89190610fbd565b60405180910390f35b6101b96103a7565b005b6101c3610592565b6040516101d09190610e8c565b60405180910390f35b6101f360048036038101906101ee9190610f3d565b610630565b6040516102009190610f95565b60405180910390f35b610223600480360381019061021e9190611085565b610652565b6040516102309190610fbd565b60405180910390f35b60605f6102446106e2565b9050806003018054610255906110f0565b80601f0160208091040260200160405190810160405280929190818152602001828054610281906110f0565b80156102cc5780601f106102a3576101008083540402835291602001916102cc565b820191905f5260205f20905b8154815290600101906020018083116102af57829003601f168201915b505050505091505090565b5f5f6102e1610709565b90506102ee818585610710565b600191505092915050565b5f5f6103036106e2565b9050806002015491505090565b5f5f61031a610709565b9050610327858285610722565b6103328585856107b5565b60019150509392505050565b5f6006905090565b61035082826108a5565b5050565b5f5f61035e6106e2565b9050805f015f8473ffffffffffffffffffffffffffffffffffffffff1673ffffffffffffffffffffffffffffffffffffffff1681526020019081526020015f2054915050919050565b5f6103b0610924565b90505f815f0160089054906101000a900460ff161590505f825f015f9054906101000a900467ffffffffffffffff1690505f5f8267ffffffffffffffff161480156103f85750825b90505f60018367ffffffffffffffff1614801561042b57505f3073ffffffffffffffffffffffffffffffffffffffff163b145b905081158015610439575080155b15610470576040517ff92ee8a900000000000000000000000000000000000000000000000000000000815260040160405180910390fd5b6001855f015f6101000a81548167ffffffffffffffff021916908367ffffffffffffffff16021790555083156104bd576001855f0160086101000a81548160ff0219169083151502179055505b6105316040518060400160405280600881526020017f4d6f636b555344430000000000000000000000000000000000000000000000008152506040518060400160405280600481526020017f5553444300000000000000000000000000000000000000000000000000000000815250610937565b831561058b575f855f0160086101000a81548160ff0219169083151502179055507fc7f505b2f371ae2175ee4913f4499e1f2633a7b5936321eed1cdaeb6115181d260016040516105829190611175565b60405180910390a15b5050505050565b60605f61059d6106e2565b90508060040180546105ae906110f0565b80601f01602080910402602001604051908101604052809291908181526020018280546105da906110f0565b80156106255780601f106105fc57610100808354040283529160200191610625565b820191905f5260205f20905b81548152906001019060200180831161060857829003601f168201915b505050505091505090565b5f5f61063a610709565b90506106478185856107b5565b600191505092915050565b5f5f61065c6106e2565b9050806001015f8573ffffffffffffffffffffffffffffffffffffffff1673ffffffffffffffffffffffffffffffffffffffff1681526020019081526020015f205f8473ffffffffffffffffffffffffffffffffffffffff1673ffffffffffffffffffffffffffffffffffffffff1681526020019081526020015f205491505092915050565b5f7f52c63247e1f47db19d5ce0460030c497f067ca4cebf71ba98eeadabe20bace00905090565b5f33905090565b61071d838383600161094d565b505050565b5f61072d8484610652565b90507fffffffffffffffffffffffffffffffffffffffffffffffffffffffffffffffff8110156107af57818110156107a0578281836040517ffb8f41b20000000000000000000000000000000000000000000000000000000081526004016107979392919061119d565b60405180910390fd5b6107ae84848484035f61094d565b5b50505050565b5f73ffffffffffffffffffffffffffffffffffffffff168373ffffffffffffffffffffffffffffffffffffffff1603610825575f6040517f96c6fd1e00000000000000000000000000000000000000000000000000000000815260040161081c91906111d2565b60405180910390fd5b5f73ffffffffffffffffffffffffffffffffffffffff168273ffffffffffffffffffffffffffffffffffffffff1603610895575f6040517fec442f0500000000000000000000000000000000000000000000000000000000815260040161088c91906111d2565b60405180910390fd5b6108a0838383610b2a565b505050565b5f73ffffffffffffffffffffffffffffffffffffffff168273ffffffffffffffffffffffffffffffffffffffff1603610915575f6040517fec442f0500000000000000000000000000000000000000000000000000000000815260040161090c91906111d2565b60405180910390fd5b6109205f8383610b2a565b5050565b5f5f61092e610d59565b90508091505090565b61093f610d82565b6109498282610dc2565b5050565b5f6109566106e2565b90505f73ffffffffffffffffffffffffffffffffffffffff168573ffffffffffffffffffffffffffffffffffffffff16036109c8575f6040517fe602df050000000000000000000000000000000000000000000000000000000081526004016109bf91906111d2565b60405180910390fd5b5f73ffffffffffffffffffffffffffffffffffffffff168473ffffffffffffffffffffffffffffffffffffffff1603610a38575f6040517f94280d62000000000000000000000000000000000000000000000000000000008152600401610a2f91906111d2565b60405180910390fd5b82816001015f8773ffffffffffffffffffffffffffffffffffffffff1673ffffffffffffffffffffffffffffffffffffffff1681526020019081526020015f205f8673ffffffffffffffffffffffffffffffffffffffff1673ffffffffffffffffffffffffffffffffffffffff1681526020019081526020015f20819055508115610b23578373ffffffffffffffffffffffffffffffffffffffff168573ffffffffffffffffffffffffffffffffffffffff167f8c5be1e5ebec7d5bd14f71427d1e84f3dd0314c0f7b2291e5b200ac8c7c3b92585604051610b1a9190610fbd565b60405180910390a35b5050505050565b5f610b336106e2565b90505f73ffffffffffffffffffffffffffffffffffffffff168473ffffffffffffffffffffffffffffffffffffffff1603610b875781816002015f828254610b7b9190611218565b92505081905550610c59565b5f815f015f8673ffffffffffffffffffffffffffffffffffffffff1673ffffffffffffffffffffffffffffffffffffffff1681526020019081526020015f2054905082811015610c12578481846040517fe450d38c000000000000000000000000000000000000000000000000000000008152600401610c099392919061119d565b60405180910390fd5b828103825f015f8773ffffffffffffffffffffffffffffffffffffffff1673ffffffffffffffffffffffffffffffffffffffff1681526020019081526020015f2081905550505b5f73ffffffffffffffffffffffffffffffffffffffff168373ffffffffffffffffffffffffffffffffffffffff1603610ca25781816002015f8282540392505081905550610cee565b81815f015f8573ffffffffffffffffffffffffffffffffffffffff1673ffffffffffffffffffffffffffffffffffffffff1681526020019081526020015f205f82825401925050819055505b8273ffffffffffffffffffffffffffffffffffffffff168473ffffffffffffffffffffffffffffffffffffffff167fddf252ad1be2c89b69c2b068fc378daa952ba7f163c4a11628f55a4df523b3ef84604051610d4b9190610fbd565b60405180910390a350505050565b5f7ff0c57e16840df040f15088dc2f81fe391c3923bec73e23a9662efc9c229c6a005f1b905090565b610d8a610dfe565b610dc0576040517fd7e6bcf800000000000000000000000000000000000000000000000000000000815260040160405180910390fd5b565b610dca610d82565b5f610dd36106e2565b905082816003019081610de6919061140f565b5081816004019081610df8919061140f565b50505050565b5f610e07610924565b5f0160089054906101000a900460ff16905090565b5f81519050919050565b5f82825260208201905092915050565b8281835e5f83830152505050565b5f601f19601f8301169050919050565b5f610e5e82610e1c565b610e688185610e26565b9350610e78818560208601610e36565b610e8181610e44565b840191505092915050565b5f6020820190508181035f830152610ea48184610e54565b905092915050565b5f5ffd5b5f73ffffffffffffffffffffffffffffffffffffffff82169050919050565b5f610ed982610eb0565b9050919050565b610ee981610ecf565b8114610ef3575f5ffd5b50565b5f81359050610f0481610ee0565b92915050565b5f819050919050565b610f1c81610f0a565b8114610f26575f5ffd5b50565b5f81359050610f3781610f13565b92915050565b5f5f60408385031215610f5357610f52610eac565b5b5f610f6085828601610ef6565b9250506020610f7185828601610f29565b9150509250929050565b5f8115159050919050565b610f8f81610f7b565b82525050565b5f602082019050610fa85f830184610f86565b92915050565b610fb781610f0a565b82525050565b5f602082019050610fd05f830184610fae565b92915050565b5f5f5f60608486031215610fed57610fec610eac565b5b5f610ffa86828701610ef6565b935050602061100b86828701610ef6565b925050604061101c86828701610f29565b9150509250925092565b5f60ff82169050919050565b61103b81611026565b82525050565b5f6020820190506110545f830184611032565b92915050565b5f6020828403121561106f5761106e610eac565b5b5f61107c84828501610ef6565b91505092915050565b5f5f6040838503121561109b5761109a610eac565b5b5f6110a885828601610ef6565b92505060206110b985828601610ef6565b9150509250929050565b7f4e487b71000000000000000000000000000000000000000000000000000000005f52602260045260245ffd5b5f600282049050600182168061110757607f821691505b60208210810361111a576111196110c3565b5b50919050565b5f819050919050565b5f67ffffffffffffffff82169050919050565b5f819050919050565b5f61115f61115a61115584611120565b61113c565b611129565b9050919050565b61116f81611145565b82525050565b5f6020820190506111885f830184611166565b92915050565b61119781610ecf565b82525050565b5f6060820190506111b05f83018661118e565b6111bd6020830185610fae565b6111ca6040830184610fae565b949350505050565b5f6020820190506111e55f83018461118e565b92915050565b7f4e487b71000000000000000000000000000000000000000000000000000000005f52601160045260245ffd5b5f61122282610f0a565b915061122d83610f0a565b9250828201905080821115611245576112446111eb565b5b92915050565b7f4e487b71000000000000000000000000000000000000000000000000000000005f52604160045260245ffd5b5f819050815f5260205f209050919050565b5f6020601f8301049050919050565b5f82821b905092915050565b5f600883026112d47fffffffffffffffffffffffffffffffffffffffffffffffffffffffffffffffff82611299565b6112de8683611299565b95508019841693508086168417925050509392505050565b5f61131061130b61130684610f0a565b61113c565b610f0a565b9050919050565b5f819050919050565b611329836112f6565b61133d61133582611317565b8484546112a5565b825550505050565b5f5f905090565b611354611345565b61135f818484611320565b505050565b5b81811015611382576113775f8261134c565b600181019050611365565b5050565b601f8211156113c75761139881611278565b6113a18461128a565b810160208510156113b0578190505b6113c46113bc8561128a565b830182611364565b50505b505050565b5f82821c905092915050565b5f6113e75f19846008026113cc565b1980831691505092915050565b5f6113ff83836113d8565b9150826002028217905092915050565b61141882610e1c565b67ffffffffffffffff8111156114315761143061124b565b5b61143b82546110f0565b611446828285611386565b5f60209050601f831160018114611477575f8415611465578287015190505b61146f85826113f4565b8655506114d6565b601f19841661148586611278565b5f5b828110156114ac57848901518255600182019150602085019450602081019050611487565b868310156114c957848901516114c5601f8916826113d8565b8355505b6001600288020188555050505b50505050505056fea2646970667358221220b1fadcb2501ef2a886667857e357f50e3ab816122db2eae1f9f02cf489059a4664736f6c634300081d0033","linkReferences":{}},"methodIdentifiers":{"allowance(address,address)":"dd62ed3e","approve(address,uint256)":"095ea7b3","balanceOf(address)":"70a08231","decimals()":"313ce567","initialize()":"8129fc1c","mint(address,uint256)":"40c10f19","name()":"06fdde03","symbol()":"95d89b41","totalSupply()":"18160ddd","transfer(address,uint256)":"a9059cbb","transferFrom(address,address,uint256)":"23b872dd"},"id":30}