{"abi":[{"type":"constructor","inputs":[{"name":"_USDC","type":"address","internalType":"address"}],"stateMutability":"nonpayable"},{"type":"function","name":"USDC","inputs":[],"outputs":[{"name":"","type":"address","internalType":"address"}],"stateMutability":"view"},{"type":"function","name":"allowance","inputs":[{"name":"owner","type":"address","internalType":"address"},{"name":"spender","type":"address","internalType":"address"}],"outputs":[{"name":"","type":"uint256","internalType":"uint256"}],"stateMutability":"view"},{"type":"function","name":"approve","inputs":[{"name":"spender","type":"address","internalType":"address"},{"name":"value","type":"uint256","internalType":"uint256"}],"outputs":[{"name":"","type":"bool","internalType":"bool"}],"stateMutability":"nonpayable"},{"type":"function","name":"balanceOf","inputs":[{"name":"account","type":"address","internalType":"address"}],"outputs":[{"name":"","type":"uint256","internalType":"uint256"}],"stateMutability":"view"},{"type":"function","name":"decimals","inputs":[],"outputs":[{"name":"","type":"uint8","internalType":"uint8"}],"stateMutability":"view"},{"type":"function","name":"deposit","inputs":[{"name":"amount","type":"uint256","internalType":"uint256"}],"outputs":[],"stateMutability":"nonpayable"},{"type":"function","name":"distributeYield","inputs":[{"name":"amount","type":"uint256","internalType":"uint256"}],"outputs":[],"stateMutability":"nonpayable"},{"type":"function","name":"name","inputs":[],"outputs":[{"name":"","type":"string","internalType":"string"}],"stateMutability":"view"},{"type":"function","name":"symbol","inputs":[],"outputs":[{"name":"","type":"string","internalType":"string"}],"stateMutability":"view"},{"type":"function","name":"totalSupply","inputs":[],"outputs":[{"name":"","type":"uint256","internalType":"uint256"}],"stateMutability":"view"},{"type":"function","name":"transfer","inputs":[{"name":"to","type":"address","internalType":"address"},{"name":"value","type":"uint256","internalType":"uint256"}],"outputs":[{"name":"","type":"bool","internalType":"bool"}],"stateMutability":"nonpayable"},{"type":"function","name":"transferFrom","inputs":[{"name":"from","type":"address","internalType":"address"},{"name":"to","type":"address","internalType":"address"},{"name":"value","type":"uint256","internalType":"uint256"}],"outputs":[{"name":"","type":"bool","internalType":"bool"}],"stateMutability":"nonpayable"},{"type":"function","name":"withdraw","inputs":[{"name":"shares","type":"uint256","internalType":"uint256"}],"outputs":[],"stateMutability":"nonpayable"},{"type":"event","name":"Approval","inputs":[{"name":"owner","type":"address","indexed":true,"internalType":"address"},{"name":"spender","type":"address","indexed":true,"internalType":"address"},{"name":"value","type":"uint256","indexed":false,"internalType":"uint256"}],"anonymous":false},{"type":"event","name":"Transfer","inputs":[{"name":"from","type":"address","indexed":true,"internalType":"address"},{"name":"to","type":"address","indexed":true,"internalType":"address"},{"name":"value","type":"uint256","indexed":false,"internalType":"uint256"}],"anonymous":false},{"type":"error","name":"ERC20InsufficientAllowance","inputs":[{"name":"spender","type":"address","internalType":"address"},{"name":"allowance","type":"uint256","internalType":"uint256"},{"name":"needed","type":"uint256","internalType":"uint256"}]},{"type":"error","name":"ERC20InsufficientBalance","inputs":[{"name":"sender","type":"address","internalType":"address"},{"name":"balance","type":"uint256","internalType":"uint256"},{"name":"needed","type":"uint256","internalType":"uint256"}]},{"type":"error","name":"ERC20InvalidApprover","inputs":[{"name":"approver","type":"address","internalType":"address"}]},{"type":"error","name":"ERC20InvalidReceiver","inputs":[{"name":"receiver","type":"address","internalType":"address"}]},{"type":"error","name":"ERC20InvalidSender","inputs":[{"name":"sender","type":"address","internalType":"address"}]},{"type":"error","name":"ERC20InvalidSpender","inputs":[{"name":"spender","type":"address","internalType":"address"}]}],"bytecode":{"object":"0x608060405234801561000f575f5ffd5b506040516119a63803806119a683398181016040528101906100319190610163565b6040518060400160405280600581526020017f5661756c740000000000000000000000000000000000000000000000000000008152506040518060400160405280600581526020017f5641554c5400000000000000000000000000000000000000000000000000000081525081600390816100ac91906103cb565b5080600490816100bc91906103cb565b5050508060055f6101000a81548173ffffffffffffffffffffffffffffffffffffffff021916908373ffffffffffffffffffffffffffffffffffffffff1602179055505061049a565b5f5ffd5b5f73ffffffffffffffffffffffffffffffffffffffff82169050919050565b5f61013282610109565b9050919050565b61014281610128565b811461014c575f5ffd5b50565b5f8151905061015d81610139565b92915050565b5f6020828403121561017857610177610105565b5b5f6101858482850161014f565b91505092915050565b5f81519050919050565b7f4e487b71000000000000000000000000000000000000000000000000000000005f52604160045260245ffd5b7f4e487b71000000000000000000000000000000000000000000000000000000005f52602260045260245ffd5b5f600282049050600182168061020957607f821691505b60208210810361021c5761021b6101c5565b5b50919050565b5f819050815f5260205f209050919050565b5f6020601f8301049050919050565b5f82821b905092915050565b5f6008830261027e7fffffffffffffffffffffffffffffffffffffffffffffffffffffffffffffffff82610243565b6102888683610243565b95508019841693508086168417925050509392505050565b5f819050919050565b5f819050919050565b5f6102cc6102c76102c2846102a0565b6102a9565b6102a0565b9050919050565b5f819050919050565b6102e5836102b2565b6102f96102f1826102d3565b84845461024f565b825550505050565b5f5f905090565b610310610301565b61031b8184846102dc565b505050565b5b8181101561033e576103335f82610308565b600181019050610321565b5050565b601f8211156103835761035481610222565b61035d84610234565b8101602085101561036c578190505b61038061037885610234565b830182610320565b50505b505050565b5f82821c905092915050565b5f6103a35f1984600802610388565b1980831691505092915050565b5f6103bb8383610394565b9150826002028217905092915050565b6103d48261018e565b67ffffffffffffffff8111156103ed576103ec610198565b5b6103f782546101f2565b610402828285610342565b5f60209050601f831160018114610433575f8415610421578287015190505b61042b85826103b0565b865550610492565b601f19841661044186610222565b5f5b8281101561046857848901518255600182019150602085019450602081019050610443565b868310156104855784890151610481601f891682610394565b8355505b6001600288020188555050505b505050505050565b6114ff806104a75f395ff3fe608060405234801561000f575f5ffd5b50600436106100cd575f3560e01c806370a082311161008a578063a9059cbb11610064578063a9059cbb14610213578063b6b55f2514610243578063c8cc5cd81461025f578063dd62ed3e1461027b576100cd565b806370a08231146101a757806389a30271146101d757806395d89b41146101f5576100cd565b806306fdde03146100d1578063095ea7b3146100ef57806318160ddd1461011f57806323b872dd1461013d5780632e1a7d4d1461016d578063313ce56714610189575b5f5ffd5b6100d96102ab565b6040516100e69190610fbf565b60405180910390f35b61010960048036038101906101049190611070565b61033b565b60405161011691906110c8565b60405180910390f35b61012761035d565b60405161013491906110f0565b60405180910390f35b61015760048036038101906101529190611109565b610366565b60405161016491906110c8565b60405180910390f35b61018760048036038101906101829190611159565b610394565b005b610191610502565b60405161019e919061119f565b60405180910390f35b6101c160048036038101906101bc91906111b8565b61050a565b6040516101ce91906110f0565b60405180910390f35b6101df61054f565b6040516101ec91906111f2565b60405180910390f35b6101fd610574565b60405161020a9190610fbf565b60405180910390f35b61022d60048036038101906102289190611070565b610604565b60405161023a91906110c8565b60405180910390f35b61025d60048036038101906102589190611159565b610626565b005b61027960048036038101906102749190611159565b6107a9565b005b6102956004803603810190610290919061120b565b61084b565b6040516102a291906110f0565b60405180910390f35b6060600380546102ba90611276565b80601f01602080910402602001604051908101604052809291908181526020018280546102e690611276565b80156103315780601f1061030857610100808354040283529160200191610331565b820191905f5260205f20905b81548152906001019060200180831161031457829003601f168201915b5050505050905090565b5f5f6103456108cd565b90506103528185856108d4565b600191505092915050565b5f600254905090565b5f5f6103706108cd565b905061037d8582856108e6565b610388858585610979565b60019150509392505050565b5f60055f9054906101000a900473ffffffffffffffffffffffffffffffffffffffff1673ffffffffffffffffffffffffffffffffffffffff166370a08231306040518263ffffffff1660e01b81526004016103ef91906111f2565b602060405180830381865afa15801561040a573d5f5f3e3d5ffd5b505050506040513d601f19601f8201168201806040525081019061042e91906112ba565b90505f61043961035d565b90505f8183856104499190611312565b6104539190611380565b905061045f3385610a69565b60055f9054906101000a900473ffffffffffffffffffffffffffffffffffffffff1673ffffffffffffffffffffffffffffffffffffffff1663a9059cbb33836040518363ffffffff1660e01b81526004016104bb9291906113b0565b6020604051808303815f875af11580156104d7573d5f5f3e3d5ffd5b505050506040513d601f19601f820116820180604052508101906104fb9190611401565b5050505050565b5f6012905090565b5f5f5f8373ffffffffffffffffffffffffffffffffffffffff1673ffffffffffffffffffffffffffffffffffffffff1681526020019081526020015f20549050919050565b60055f9054906101000a900473ffffffffffffffffffffffffffffffffffffffff1681565b60606004805461058390611276565b80601f01602080910402602001604051908101604052809291908181526020018280546105af90611276565b80156105fa5780601f106105d1576101008083540402835291602001916105fa565b820191905f5260205f20905b8154815290600101906020018083116105dd57829003601f168201915b5050505050905090565b5f5f61060e6108cd565b905061061b818585610979565b600191505092915050565b5f60055f9054906101000a900473ffffffffffffffffffffffffffffffffffffffff1673ffffffffffffffffffffffffffffffffffffffff166370a08231306040518263ffffffff1660e01b815260040161068191906111f2565b602060405180830381865afa15801561069c573d5f5f3e3d5ffd5b505050506040513d601f19601f820116820180604052508101906106c091906112ba565b90505f6106cb61035d565b90505f5f90505f82036106e0578390506106fa565b8282856106ed9190611312565b6106f79190611380565b90505b6107043382610ae8565b60055f9054906101000a900473ffffffffffffffffffffffffffffffffffffffff1673ffffffffffffffffffffffffffffffffffffffff166323b872dd3330876040518463ffffffff1660e01b81526004016107629392919061142c565b6020604051808303815f875af115801561077e573d5f5f3e3d5ffd5b505050506040513d601f19601f820116820180604052508101906107a29190611401565b5050505050565b60055f9054906101000a900473ffffffffffffffffffffffffffffffffffffffff1673ffffffffffffffffffffffffffffffffffffffff166323b872dd3330846040518463ffffffff1660e01b81526004016108079392919061142c565b6020604051808303815f875af1158015610823573d5f5f3e3d5ffd5b505050506040513d601f19601f820116820180604052508101906108479190611401565b5050565b5f60015f8473ffffffffffffffffffffffffffffffffffffffff1673ffffffffffffffffffffffffffffffffffffffff1681526020019081526020015f205f8373ffffffffffffffffffffffffffffffffffffffff1673ffffffffffffffffffffffffffffffffffffffff1681526020019081526020015f2054905092915050565b5f33905090565b6108e18383836001610b67565b505050565b5f6108f1848461084b565b90507fffffffffffffffffffffffffffffffffffffffffffffffffffffffffffffffff8110156109735781811015610964578281836040517ffb8f41b200000000000000000000000000000000000000000000000000000000815260040161095b93929190611461565b60405180910390fd5b61097284848484035f610b67565b5b50505050565b5f73ffffffffffffffffffffffffffffffffffffffff168373ffffffffffffffffffffffffffffffffffffffff16036109e9575f6040517f96c6fd1e0000000000000000000000000000000000000000000000000000000081526004016109e091906111f2565b60405180910390fd5b5f73ffffffffffffffffffffffffffffffffffffffff168273ffffffffffffffffffffffffffffffffffffffff1603610a59575f6040517fec442f05000000000000000000000000000000000000000000000000000000008152600401610a5091906111f2565b60405180910390fd5b610a64838383610d36565b505050565b5f73ffffffffffffffffffffffffffffffffffffffff168273ffffffffffffffffffffffffffffffffffffffff1603610ad9575f6040517f96c6fd1e000000000000000000000000000000000000000000000000000000008152600401610ad091906111f2565b60405180910390fd5b610ae4825f83610d36565b5050565b5f73ffffffffffffffffffffffffffffffffffffffff168273ffffffffffffffffffffffffffffffffffffffff1603610b58575f6040517fec442f05000000000000000000000000000000000000000000000000000000008152600401610b4f91906111f2565b60405180910390fd5b610b635f8383610d36565b5050565b5f73ffffffffffffffffffffffffffffffffffffffff168473ffffffffffffffffffffffffffffffffffffffff1603610bd7575f6040517fe602df05000000000000000000000000000000000000000000000000000000008152600401610bce91906111f2565b60405180910390fd5b5f73ffffffffffffffffffffffffffffffffffffffff168373ffffffffffffffffffffffffffffffffffffffff1603610c47575f6040517f94280d62000000000000000000000000000000000000000000000000000000008152600401610c3e91906111f2565b60405180910390fd5b8160015f8673ffffffffffffffffffffffffffffffffffffffff1673ffffffffffffffffffffffffffffffffffffffff1681526020019081526020015f205f8573ffffffffffffffffffffffffffffffffffffffff1673ffffffffffffffffffffffffffffffffffffffff1681526020019081526020015f20819055508015610d30578273ffffffffffffffffffffffffffffffffffffffff168473ffffffffffffffffffffffffffffffffffffffff167f8c5be1e5ebec7d5bd14f71427d1e84f3dd0314c0f7b2291e5b200ac8c7c3b92584604051610d2791906110f0565b60405180910390a35b50505050565b5f73ffffffffffffffffffffffffffffffffffffffff168373ffffffffffffffffffffffffffffffffffffffff1603610d86578060025f828254610d7a9190611496565b92505081905550610e54565b5f5f5f8573ffffffffffffffffffffffffffffffffffffffff1673ffffffffffffffffffffffffffffffffffffffff1681526020019081526020015f2054905081811015610e0f578381836040517fe450d38c000000000000000000000000000000000000000000000000000000008152600401610e0693929190611461565b60405180910390fd5b8181035f5f8673ffffffffffffffffffffffffffffffffffffffff1673ffffffffffffffffffffffffffffffffffffffff1681526020019081526020015f2081905550505b5f73ffffffffffffffffffffffffffffffffffffffff168273ffffffffffffffffffffffffffffffffffffffff1603610e9b578060025f8282540392505081905550610ee5565b805f5f8473ffffffffffffffffffffffffffffffffffffffff1673ffffffffffffffffffffffffffffffffffffffff1681526020019081526020015f205f82825401925050819055505b8173ffffffffffffffffffffffffffffffffffffffff168373ffffffffffffffffffffffffffffffffffffffff167fddf252ad1be2c89b69c2b068fc378daa952ba7f163c4a11628f55a4df523b3ef83604051610f4291906110f0565b60405180910390a3505050565b5f81519050919050565b5f82825260208201905092915050565b8281835e5f83830152505050565b5f601f19601f8301169050919050565b5f610f9182610f4f565b610f9b8185610f59565b9350610fab818560208601610f69565b610fb481610f77565b840191505092915050565b5f6020820190508181035f830152610fd78184610f87565b905092915050565b5f5ffd5b5f73ffffffffffffffffffffffffffffffffffffffff82169050919050565b5f61100c82610fe3565b9050919050565b61101c81611002565b8114611026575f5ffd5b50565b5f8135905061103781611013565b92915050565b5f819050919050565b61104f8161103d565b8114611059575f5ffd5b50565b5f8135905061106a81611046565b92915050565b5f5f6040838503121561108657611085610fdf565b5b5f61109385828601611029565b92505060206110a48582860161105c565b9150509250929050565b5f8115159050919050565b6110c2816110ae565b82525050565b5f6020820190506110db5f8301846110b9565b92915050565b6110ea8161103d565b82525050565b5f6020820190506111035f8301846110e1565b92915050565b5f5f5f606084860312156111205761111f610fdf565b5b5f61112d86828701611029565b935050602061113e86828701611029565b925050604061114f8682870161105c565b9150509250925092565b5f6020828403121561116e5761116d610fdf565b5b5f61117b8482850161105c565b91505092915050565b5f60ff82169050919050565b61119981611184565b82525050565b5f6020820190506111b25f830184611190565b92915050565b5f602082840312156111cd576111cc610fdf565b5b5f6111da84828501611029565b91505092915050565b6111ec81611002565b82525050565b5f6020820190506112055f8301846111e3565b92915050565b5f5f6040838503121561122157611220610fdf565b5b5f61122e85828601611029565b925050602061123f85828601611029565b9150509250929050565b7f4e487b71000000000000000000000000000000000000000000000000000000005f52602260045260245ffd5b5f600282049050600182168061128d57607f821691505b6020821081036112a05761129f611249565b5b50919050565b5f815190506112b481611046565b92915050565b5f602082840312156112cf576112ce610fdf565b5b5f6112dc848285016112a6565b91505092915050565b7f4e487b71000000000000000000000000000000000000000000000000000000005f52601160045260245ffd5b5f61131c8261103d565b91506113278361103d565b92508282026113358161103d565b9150828204841483151761134c5761134b6112e5565b5b5092915050565b7f4e487b71000000000000000000000000000000000000000000000000000000005f52601260045260245ffd5b5f61138a8261103d565b91506113958361103d565b9250826113a5576113a4611353565b5b828204905092915050565b5f6040820190506113c35f8301856111e3565b6113d060208301846110e1565b9392505050565b6113e0816110ae565b81146113ea575f5ffd5b50565b5f815190506113fb816113d7565b92915050565b5f6020828403121561141657611415610fdf565b5b5f611423848285016113ed565b91505092915050565b5f60608201905061143f5f8301866111e3565b61144c60208301856111e3565b61145960408301846110e1565b949350505050565b5f6060820190506114745f8301866111e3565b61148160208301856110e1565b61148e60408301846110e1565b949350505050565b5f6114a08261103d565b91506114ab8361103d565b92508282019050808211156114c3576114c26112e5565b5b9291505056fea2646970667358221220c4c07968960b3a115be9711e7f064d81b8a0c3beba0fe747103b14c35a11334664736f6c634300081d0033","linkReferences":{}},"methodIdentifiers":{"USDC()":"89a30271","allowance(address,address)":"dd62ed3e","approve(address,uint256)":"095ea7b3","balanceOf(address)":"70a08231","decimals()":"313ce567","deposit(uint256)":"b6b55f25","distributeYield(uint256)":"c8cc5cd8","name()":"06fdde03","symbol()":"95d89b41","totalSupply()":"18160ddd","transfer(address,uint256)":"a9059cbb","transferFrom(address,address,uint256)":"23b872dd","withdraw(uint256)":"2e1a7d4d"},"id":25}