{"abi":[{"type":"function","name":"swap","inputs":[{"name":"amountIn","type":"uint256","internalType":"uint256"}],"outputs":[],"stateMutability":"nonpayable"}],"bytecode":{"object":"0x608060405273e592427a0aece92de3edee1f18e0157c058615645f5f6101000a81548173ffffffffffffffffffffffffffffffffffffffff021916908373ffffffffffffffffffffffffffffffffffffffff1602179055507382af49447d8a07e3bd95bd0d56f35241523fbab160015f6101000a81548173ffffffffffffffffffffffffffffffffffffffff021916908373ffffffffffffffffffffffffffffffffffffffff16021790555073af88d065e77c8cc2239327c5edb3a432268e583160025f6101000a81548173ffffffffffffffffffffffffffffffffffffffff021916908373ffffffffffffffffffffffffffffffffffffffff16021790555034801561010a575f5ffd5b50610606806101185f395ff3fe608060405234801561000f575f5ffd5b5060043610610029575f3560e01c806394b918de1461002d575b5f5ffd5b61004760048036038101906100429190610358565b610049565b005b60015f9054906101000a900473ffffffffffffffffffffffffffffffffffffffff1673ffffffffffffffffffffffffffffffffffffffff166323b872dd3330846040518463ffffffff1660e01b81526004016100a7939291906103d1565b6020604051808303815f875af11580156100c3573d5f5f3e3d5ffd5b505050506040513d601f19601f820116820180604052508101906100e7919061043b565b5060015f9054906101000a900473ffffffffffffffffffffffffffffffffffffffff1673ffffffffffffffffffffffffffffffffffffffff1663095ea7b35f5f9054906101000a900473ffffffffffffffffffffffffffffffffffffffff16836040518363ffffffff1660e01b8152600401610164929190610466565b6020604051808303815f875af1158015610180573d5f5f3e3d5ffd5b505050506040513d601f19601f820116820180604052508101906101a4919061043b565b505f60405180610100016040528060015f9054906101000a900473ffffffffffffffffffffffffffffffffffffffff1673ffffffffffffffffffffffffffffffffffffffff16815260200160025f9054906101000a900473ffffffffffffffffffffffffffffffffffffffff1673ffffffffffffffffffffffffffffffffffffffff168152602001610bb862ffffff1681526020013373ffffffffffffffffffffffffffffffffffffffff1681526020014281526020018381526020015f81526020015f73ffffffffffffffffffffffffffffffffffffffff1681525090505f5f9054906101000a900473ffffffffffffffffffffffffffffffffffffffff1673ffffffffffffffffffffffffffffffffffffffff1663414bf389826040518263ffffffff1660e01b81526004016102dc9190610577565b6020604051808303815f875af11580156102f8573d5f5f3e3d5ffd5b505050506040513d601f19601f8201168201806040525081019061031c91906105a5565b505050565b5f5ffd5b5f819050919050565b61033781610325565b8114610341575f5ffd5b50565b5f813590506103528161032e565b92915050565b5f6020828403121561036d5761036c610321565b5b5f61037a84828501610344565b91505092915050565b5f73ffffffffffffffffffffffffffffffffffffffff82169050919050565b5f6103ac82610383565b9050919050565b6103bc816103a2565b82525050565b6103cb81610325565b82525050565b5f6060820190506103e45f8301866103b3565b6103f160208301856103b3565b6103fe60408301846103c2565b949350505050565b5f8115159050919050565b61041a81610406565b8114610424575f5ffd5b50565b5f8151905061043581610411565b92915050565b5f602082840312156104505761044f610321565b5b5f61045d84828501610427565b91505092915050565b5f6040820190506104795f8301856103b3565b61048660208301846103c2565b9392505050565b610496816103a2565b82525050565b5f62ffffff82169050919050565b6104b38161049c565b82525050565b6104c281610325565b82525050565b6104d181610383565b82525050565b61010082015f8201516104ec5f85018261048d565b5060208201516104ff602085018261048d565b50604082015161051260408501826104aa565b506060820151610525606085018261048d565b50608082015161053860808501826104b9565b5060a082015161054b60a08501826104b9565b5060c082015161055e60c08501826104b9565b5060e082015161057160e08501826104c8565b50505050565b5f6101008201905061058b5f8301846104d7565b92915050565b5f8151905061059f8161032e565b92915050565b5f602082840312156105ba576105b9610321565b5b5f6105c784828501610591565b9150509291505056fea264697066735822122070429f8293198424d0368fe861eb6aec6609292db8583d57335ba491ae38b33764736f6c634300081d0033","linkReferences":{}},"methodIdentifiers":{"swap(uint256)":"94b918de"},"id":22}